:020000040800F2
:1000000000000524F12D0008192B0008212B000801
:10001000292B0008312B0008392B000800000000B4
:10002000000000000000000000000000412B00085C
:100030004F2B0008000000005D2B00086B2B000810
:10004000452E0008452E0008452E0008452E0008C4
:10005000452E0008452E0008452E0008452E0008B4
:10006000452E0008452E0008772B0008852B000838
:10007000992B0008AD2B0008C12B0008D52B0008D8
:10008000E92B0008FD2B0008452E0008452E00082E
:10009000452E0008452E0008452E0008112C0008AA
:1000A000452E0008452E0008452E0008452E000864
:1000B000452E0008452E0008452E00082D2C00086E
:1000C000412C0008452E0008452E0008452E00084A
:1000D000452E0008552C0008452E0008452E000826
:1000E000452E0008452E000800000000452E00089F
:1000F000452E0008452E0008452E0008692C0008F2
:10010000452E0008452E0008452E0008452E000803
:100110007D2C0008912C0008452E0008452E000873
:10012000452E0008452E0008452E0008452E0008E3
:10013000452E0008452E0008452E0008452E0008D3
:1001400000000000000000000000000000000000AF
:10015000452E0008452E0008452E0008452E0008B3
:10016000452E0008452E0008452E0008452E0008A3
:10017000452E0008A52C0008452E000800000000B0
:10018000452E0008452E0008452E0008452E000883
:10019000452E0008452E0008452E0008452E000873
:1001A000452E0008452E0008452E000800000000DE
:1001B000452E0008452E0008452E0008452E000853
:1001C000452E0008452E0008000000000000000039
:1001D0000000000000000000452E000800000000A4
:1001E000000000000000000000000000000000000F
:1001F0000000000000000000452E0008452E000809
:10020000452E0008452E000800000000452E00087D
:10021000452E0008452E0008452E0008452E0008F2
:10022000452E000800000000452E000800000000D8
:10023000452E0008452E000800000000452E00084D
:10024000452E0008452E0008452E0008452E0008C2
:10025000452E0008452E0008452E0008452E0008B2
:10026000452E0008452E0008452E0008452E0008A2
:10027000452E0008452E0008452E0008000000000D
:10028000452E0008452E0008452E0008452E000882
:1002900000000000452E0008452E00080000000068
:1002A00000000000452E0008452E0008452E0008DD
:1002B000452E0008452E0008452E0008452E000852
:0C02C000452E0008452E0008452E0008C1
:1002CC0010B5054C237833B9044B13B10448AFF384
:1002DC0000800123237010BD640200240000000084
:1002EC008C36010808B5034B1BB103490348AFF327
:1002FC00008008BD00000000680200248C36010854
:10030C0053B94AB9002908BF00281CBF4FF0FF3170
:10031C004FF0FF3000F088B9ADF1080C6DE904CE58
:10032C0000F006F8DDF804E0DDE9022304B07047C4
:10033C002DE9F047089D8E4604468846002B4AD18D
:10034C008A42174662D9B2FA82F64EB1C6F1200340
:10035C0001FA06F820FA03F3B74043EA0808B44060
:10036C004FEA174E1FFA87FCB8FBFEF1230C0EFB6D
:10037C00118843EA084301FB0CF29A4209D9FB1895
:10038C0001F1FF3080F0EA809A4240F2E7800239B6
:10039C003B449A1AA3B2B2FBFEF00EFB102243EAC6
:1003AC00024300FB0CFC9C4509D9FB1800F1FF3201
:1003BC0080F0D6809C4540F2D3803B44023840EA22
:1003CC000140A3EB0C0300211DB1F3400022C5E951
:1003DC000032BDE8F0878B4205D90DB1C5E90001AB
:1003EC0000210846F5E7B3FA83F1002946D173459D
:1003FC0002D3824200F20581841A6EEB03020120C3
:10040C009046002DE5D0C5E90048E2E7002A00F04F
:10041C009080B2FA82F6002E40F0A4808A1A030C67
:10042C004FEA174E80B2BCB20121B2FBFEFC0EFBB0
:10043C001C2243EA024304FB0CF29A4207D9FB1834
:10044C000CF1FF3802D29A4200F2E080C4469B1AAB
:10045C00B3FBFEF20EFB123340EA034302FB04F43F
:10046C009C4207D9FB1802F1FF3002D29C4200F2E9
:10047C00CA8002461B1B42EA0C40A5E7C1F12006CC
:10048C008B4022FA06F71F430EFA01F420FA06F30A
:10049C002EFA06FE4FEA1749234300FA01F81FFA19
:1004AC0087FCBEFBF9F01C0C09FB10EE44EA0E4471
:1004BC0000FB0CFEA64502FA01F209D93C1900F129
:1004CC00FF3A80F09C80A64540F2998002383C446B
:1004DC00A4EB0E041FFA83FEB4FBF9F309FB1344DF
:1004EC004EEA044403FB0CFCA44508D93C1903F167
:1004FC00FF3E80F08280A4457FD9023B3C4443EA16
:10050C000040A4EB0C04A0FB02EC64457346E146EE
:10051C0062D35FD05DB1B8EB030264EB090404FA5B
:10052C0006F622FA01F31E43CC40C5E90064002113
:10053C004FE7B1FBF2FC010C41EA0E4180B240EAFC
:10054C0001423B4638463C46B846BE462026B1FBE7
:10055C00F7F1A2EB080241EA0C4166E7014618E705
:10056C0010462CE7C6F120022EFA02F3B740B14038
:10057C0020FA02F24FEA174E0A43B3FBFEF8BCB264
:10058C000EFB1833110C41EA034108FB04F9B0408F
:10059C0089454FEA104380B23ED9791808F1FF3CE7
:1005AC0001D289451FD8A1EB0901B1FBFEF909FB6A
:1005BC0004F80EFB191192B242EA0142424529D2CB
:1005CC00BA1809F1FF31C4D24245C2D2A9F10201D5
:1005DC003A44BEE7F0459DD2BEEB02036CEB070C30
:1005EC000138E14696E7A7EB09094944A8F1020C4A
:1005FC00B1FBFEF909FB04F8DBE773467FE75046D5
:10060C0066E70846FDE63B44023A33E7ACF1020CE0
:10061C003B441CE749469CE7A1EB0901C446B1FBEE
:10062C00FEF909FB04F8C4E7704700BFF0B486B0CC
:10063C0000AFF860C7E900230023FB751DE097F8B5
:10064C002820FB7DD31A013BD900D7E90023C1F147
:10065C002006A1F1200022FA01F403FA06F6344335
:10066C0023FA00F0044323FA01F5FB7DFA681344E6
:10067C00E2B21A70FB7D0133FB75FA7D97F82830D6
:10068C009A42DCD300BF00BF1837BD46F0BC7047A0
:10069C0080B582B000AF0023FB7110212B4805F010
:1006AC000FFE0346002B03D1FB7943F00103FB71D2
:1006BC002021264805F004FE0346002B03D1FB79CC
:1006CC0043F00203FB710121214805F0F9FD0346BB
:1006DC00002B03D1FB7943F00403FB7102211C486E
:1006EC0005F0EEFD0346002B03D1FB7943F0080324
:1006FC00FB71184B1B781946174AFB795354154B51
:10070C001B78591C154BA3FB01235A0813465B009D
:10071C001344CA1AD2B20F4B1A700F4B5A780E4BA5
:10072C0019780D4B9B780B43DBB21340DAB20A4BB2
:10073C001978094B9B780B40DBB21343DAB2084BA8
:10074C001A7000BF0837BD4680BD00BF00080258B4
:10075C00000402582F03002430030024ABAAAAAAD9
:10076C00080300242DE9B04F8CB002AFF860624B47
:10077C001B78DBB21A4613465B0013441B015F4A1D
:10078C0013443B62002387F82730002387F8263078
:10079C0062E097F82630184601F01CFAB86197F819
:1007AC00262013469B0013445B0004333A6A13441F
:1007BC007B61BB69002B05D0BB691B6BFA68D31A34
:1007CC00952B0CD90A220021786912F02DFF4C4B85
:1007DC00D3F8803001334A4AC2F8803037E097F8BA
:1007EC002630012202FA03F3DAB297F827301343CA
:1007FC0087F82730BB69DB6B1A4600239046994675
:10080C000423009342464B467869FFF70FFF7B6940
:10081C00191DBB699B6B00229A46934604230093D7
:10082C0052465B460846FFF701FF7B6903F108015E
:10083C00BB69B3F944309BB29BB200223B607A6037
:10084C0002230093D7E900230846FFF7EFFE97F841
:10085C002630013387F8263097F82630032B98D9A9
:10086C003B6AAB221A703B6A0133CD221A703B6A89
:10087C00023301221A7097F8273003F00F03D9B214
:10088C00204B1B78DBB21B01DAB23B6A03330A4301
:10089C00D2B21A700023FB833B6A03F12C01FB8B51
:1008AC0000221C4615460223009322462B4608467E
:1008BC00FFF7BCFE3B6A2E33E1221A703B6A2F33E2
:1008CC00E2221A700E4B1B6801330D4A13600A4B5F
:1008DC001B78DAB20C4B1A70074B1B78DBB283F027
:1008EC000103DAB2044B1A7000F05CF800BF283731
:1008FC00BD46BDE8B08F00BF800200240000003070
:10090C0084020024080300240000002480B582B077
:10091C0000AF78607B689B7A002B07D07B685868A7
:10092C007B681B890022194605F0E2FC7B680022DB
:10093C001A7300BF0837BD4680BD80B584B000AFC8
:10094C00786039607B689B7A002B11D07B68586883
:10095C007B681B890122194605F0CAFC0023FB6049
:10096C0003E000BFFB680133FB60FB68C72BF8DDBD
:10097C007B6801221A7302F0E7FA02467B681A615F
:10098C007B681B683022396818460CF009FB03465B
:10099C00002B02D07868FFF7B9FF00BF1037BD46B7
:1009AC0080BD000080B584B000AF2A4B1B78DBB251
:1009BC001A4613465B0013441B01274A1344BB60C1
:1009CC000023FB733EE0FA7B13469B0013449B0011
:1009DC00224A13447B607B681B7BDBB2002B0AD062
:1009EC00FB7B1F491A1D51F8222001321C4904338C
:1009FC0041F8232023E07B68DB7A002B11D00821FF
:100A0C00184805F05DFC0346012B0AD1FB7B144909
:100A1C001A1D51F8222001321149043341F82320C8
:100A2C000DE0B9687868FFF788FFFA7B0C499300F2
:100A3C000B445B68591C0A48930003445960FB7BC8
:100A4C000133FB73FB7B022BBDD900BF00BF1037FA
:100A5C00BD4680BD000000240000003004000024CE
:100A6C00840200240000025880B584B000AF786086
:100A7C000023FB7318E0FA7B0E4913469B001344CA
:100A8C009B000B441B687A689A420AD1FA7B134686
:100A9C009B0013449B00074A13441846FFF736FF8C
:100AAC0005E0FB7B0133FB73FB7B022BE3D9103797
:100ABC00BD4680BD0400002480B584B000AF7860D2
:100ACC000023FB735BE0FA7B304913469B00134415
:100ADC009B000B441B687A689A424CD17B68D3F814
:100AEC009030BB60BB6803F00F03002B1ED0FB7B68
:100AFC00274903F11C0251F82220013224491C33EE
:100B0C0041F823207B681B6808221A627B681B68EB
:100B1C0002221A627B681B6804221A627B68D3F873
:100B2C00903023F00F027B68C3F890207B68D3F8D9
:100B3C00903003F01003002B18D0FA7B1449931D4E
:100B4C009B000B445B68591C1148931D9B0003448C
:100B5C00596078680CF0F0FAFA7B13469B0013444A
:100B6C009B000A4A13441846FFF7D0FE7B6800220C
:100B7C00C3F8902006E000BFFB7B0133FB73FB7BCB
:100B8C00022BA0D91037BD4680BD00BF0400002445
:100B9C008402002480B582B000AF0023FB7134E0E6
:100BAC00FB791E4A002122F81310FB791C4A002104
:100BBC00D154FB791B021B4A13444FF48072002161
:100BCC00184612F031FDFA79174913469B0013446D
:100BDC009B000B441868FB791B02124A13444FF418
:100BEC00807219460CF05CFA0346002B0AD0FB7994
:100BFC000E4903F11C0251F8222001320B491C331F
:100C0C0041F82320FB790133FB71FB79022BC7D907
:100C1C0000BF00BF0837BD4680BD00BF0C030024D9
:100C2C002C03002460000030040000248402002403
:100C3C0080B483B000AF0346FB71FA798549134643
:100C4C009B0013449B000B441B68D3F880301B683B
:100C5C00814A934200F0D780FA797E4913469B0073
:100C6C0013449B000B441B68D3F880301B687B4AF1
:100C7C00934200F0C880FA79764913469B001344DE
:100C8C009B000B441B68D3F880301B68744A93425A
:100C9C0000F0B980FA796F4913469B0013449B000E
:100CAC000B441B68D3F880301B686E4A934200F0EB
:100CBC00AA80FA79674913469B0013449B000B44A6
:100CCC001B68D3F880301B68674A934200F09B8006
:100CDC00FA79604913469B0013449B000B441B6834
:100CEC00D3F880301B68614A934200F08C80FA790B
:100CFC00584913469B0013449B000B441B68D3F8C4
:100D0C0080301B685A4A93427DD0FA795149134678
:100D1C009B0013449B000B441B68D3F880301B686A
:100D2C00544A93426FD0FA794A4913469B001344B4
:100D3C009B000B441B68D3F880301B684E4A9342CF
:100D4C0061D0FA79434913469B0013449B000B4432
:100D5C001B68D3F880301B68484A934253D0FA7909
:100D6C003C4913469B0013449B000B441B68D3F86F
:100D7C0080301B68424A934245D0FA793549134674
:100D8C009B0013449B000B441B68D3F880301B68FA
:100D9C003C4A934237D0FA792E4913469B001344B0
:100DAC009B000B441B68D3F880301B68364A934277
:100DBC0029D0FA79274913469B0013449B000B4416
:100DCC001B68D3F880301B68304A93421BD0FA79E9
:100DDC00204913469B0013449B000B441B68D3F81B
:100DEC0080301B682A4A93420DD0FA791949134670
:100DFC009B0013449B000B441B68D3F880301B688A
:100E0C00244A934210D1FA79124913469B00134499
:100E1C009B000B441B68D3F880301B685B689BB24B
:100E2C00C3F580739BB20FE0FA790A4913469B0015
:100E3C0013449B000B441B68D3F880301B685B6821
:100E4C009BB2C3F580739BB218460C37BD465DF858
:100E5C00047B70470400002410000240280002406C
:100E6C0040000240580002407000024088000240DE
:100E7C00A0000240B80002401004024028040240C6
:100E8C0040040240580402407004024088040240AE
:100E9C00A0040240B804024080B584B000AF034601
:100EAC003960FB713B6804331B781BB21B021AB20E
:100EBC003B6805331B781BB213431BB2FB81002329
:100ECC00BB81FA89BB899A420ED0FA791F4902F18B
:100EDC0012039B000B445B68591C1C4802F1120363
:100EEC009B00034459602DE03B6802331B78882B30
:100EFC000BD0FB79154903F1160251F8222001326F
:100F0C001249163341F823201CE0FB790F4903F1F9
:100F1C00100251F8222001320C49103341F82320E1
:100F2C003B6803331B78002B06D100224FF4007171
:100F3C00074805F0DDF905E001224FF40071044883
:100F4C0005F0D6F91037BD4680BD00BF84020024E1
:100F5C000004025880B584B000AF03460A46FB710A
:100F6C001346BB71FB79384AD35CFB73FB7B002BBC
:100F7C0002D0012B0DD022E0BB79AB2B5BD1FB79DE
:100F8C003249BA7901F83320FB792F4A0121D15427
:100F9C0051E0BB79CD2B0AD1FB792C4ADB001344F1
:100FAC00BA795A70FB79284A0221D15445E0BB79B1
:100FBC00AB2B42D0FB79244A0021D1543DE0FA7985
:100FCC00FB7B2249D2000A441344BA791A70FB798C
:100FDC00FA7B0132D1B21C4AD15400BFFB791A4AB8
:100FEC00D35C072B2BD9FB79174A0021D154FB7901
:100FFC00164ADB0013449B79E12B10D1FB79134A81
:10100C00DB001344DB79E22B09D1FB79DB000F4ABF
:10101C001A44FB7911461846FFF73EFF10E0FB79A6
:10102C000B4903F1160251F82220013208491633FC
:10103C0041F8232004E000BF02E000BF00E000BF45
:10104C001037BD4680BD00BF2C03002414030024C0
:10105C008402002480B582B000AF0023FB714DE008
:10106C00FB791846FFF7E4FD03467B80FB79274AA2
:10107C0032F81330BB807A88BB88D31A9BB2DBB2B0
:10108C003B803B88F82B2DD9FA79214902F11803C2
:10109C009B000B445B68591C1D4802F118039B0014
:1010AC00034459601EE0FA79BB881A4912020A44BB
:1010BC0013441A78FB7911461846FFF74BFFBB888F
:1010CC0001339BB2DBB2BB80FA79114902F10C03FC
:1010DC009B000B445B68591C0D4802F10C039B00F0
:1010EC0003445960BA887B889A42DCD1FB79074962
:1010FC00BA8821F81320FB790133FB71FB79022BA1
:10110C00AED900BF00BF0837BD4680BD0C0300241C
:10111C00840200246000003080B582B000AF6022F1
:10112C000021234812F080FA84220021214812F079
:10113C007BFA214B00221A70204B01221A700023DB
:10114C00FB7111E0FB79184600F044FD38603B68F8
:10115C00002B06D001F0F8FE0346A3F196023B6883
:10116C001A63FB790133FB71FB79032BEAD900225B
:10117C004FF40071124805F0BBF800224FF4806167
:10118C00104805F0B5F8002240210D4805F0B0F8E4
:10119C00002204210B4805F0ABF8002204210A4878
:1011AC0005F0A6F8FFF7F6FC00BF0837BD4680BD7A
:1011BC00000000308402002480020024000000247F
:1011CC0000080258000402580000025880B500AF15
:1011DC0000F078FB0346032B04D1034BDB6F013388
:1011EC00014AD36700BF80BD8402002480B582B061
:1011FC0000AF786000F0DAFB0346022B06D100202A
:10120C0000F0E0FB7868FFF7ADFA00E000BF0837AC
:10121C00BD4680BD80B584B000AF78600023FB7301
:10122C0034E0FA7B13469B0013449B001B4A134487
:10123C00BB60BB681B7BDBB283F00103DBB2002B12
:10124C001ED1BB681B697A68D31A312B1AD9FB7B68
:10125C00134903F10A0251F82220013210490A33D2
:10126C0041F82320BB681B6818460BF065FFBB6870
:10127C001B680022C3F89020B868FFF747FB02E018
:10128C0000BF00E000BFFB7B0133FB73FB7B022B39
:10129C00C7D900BF00BF1037BD4680BD0400002475
:1012AC008402002480B485B000AF78607B681B7822
:1012BC001A047B6801331B781B0213437A680232D1
:1012CC0012781343FB60FB681B11FB60FB6803F493
:1012DC000023002B03D0FA68044B1343FB60FB681C
:1012EC0018461437BD465DF8047B70470000F0FFCC
:1012FC0080B485B000AF78607B681B781A047B687B
:10130C0001331B781B0213437A68023212781343A1
:10131C00FB60FB681B09C3F3130318461437BD4667
:10132C005DF8047B7047000080B584B000AFF860B6
:10133C000B467A60FB72FB7A013B062B6FD801A23D
:10134C0052F823F06D1300082B1400082B1400081E
:10135C002B140008A1130008F1130008C91300088E
:10136C007B681B781BB21B021AB27B6801331B789B
:10137C001BB213431BB29AB2FB689A81FB689B8920
:10138C004FF66A3293420CBF01230023DAB2FB689A
:10139C001A7645E07868FFF7ABFF0246FB689A6364
:1013AC00FB689B6B07EE903AF8EE677A9FED1E7A1E
:1013BC0067EE877AFB68C3ED077A31E07868FFF750
:1013CC0071FF0246FB68DA63FB68DB6B07EE903A51
:1013DC00F8EEE77A9FED157A67EE877AFB68C3ED36
:1013EC00097A1DE07B681B781BB21B021AB27B6862
:1013FC0001331B781BB213431AB2FB68A3F84420C9
:10140C00FB68B3F9443007EE903AF8EEE77A9FEDBB
:10141C00087A67EE877AFB68C3ED0B7A00E000BFB1
:10142C0000BF1037BD4680BDCDCC4C390AD7A33890
:10143C000000003C90B58BB004AFF8607A601A469F
:10144C000B46FB721346BB7200237B6119E0134BF6
:10145C001868FB681B785B0099B2FB7A9AB2BB7A6E
:10146C009BB20524029401937B680093012305F041
:10147C003DF90346002B01D100230BE07B690133BE
:10148C007B617B69022BE2D9FB685B695A1CFB68A8
:10149C005A61012318461C37BD4690BD3403002405
:1014AC0080B588B004AF78600B46FB7013463B8068
:1014BC003B881B0A9BB2DBB23B723B88DBB27B7274
:1014CC000023FB6019E0134B18687B681B785B00EA
:1014DC0099B2FB789AB2052302930223019307F188
:1014EC0008030093012304F0EDFF0346002B01D108
:1014FC0000230BE0FB680133FB60FB68022BE2D995
:10150C007B685B695A1C7B685A610123184610374B
:10151C00BD4680BD3403002480B586B000AFF860B2
:10152C000B467A60FB7207F11402F97A0223F86811
:10153C00FFF780FF0346FB75FB7D002B0AD13B7D3B
:10154C001BB21B021AB27B7D1BB213431BB29AB2A5
:10155C007B681A80FB7D18461837BD4680BD00009D
:10156C0080B582B000AF786039607B68002B02D008
:10157C003B68002B01D1042317E0242200210D48E5
:10158C0012F052F80B4A7B6813600A4A3B685360AE
:10159C00084B094ADA60074B04221A74054B0022E7
:1015AC005A72044B01221A72002318460837BD46A2
:1015BC0080BD00BF34030024B8360108B0B58AB032
:1015CC0000AF78604A4B1B7A83F00103DBB2002B2F
:1015DC0002D17B68002B01D1042384E0444B5B7A5D
:1015EC00DBB2012B01D103237DE07B6800221A764C
:1015FC0007F120031A463E217868FFF78DFF03465A
:10160C0087F8233097F82330002B02D097F823303B
:10161C0069E03B8C45F24942934201D0022362E0DF
:10162C004FF4004200217868FFF73AFF034687F831
:10163C00233097F82330002B02D097F8233052E058
:10164C00022001F08DFC2B4B07F10C041D460FCD35
:10165C000FC42B68236000237B621CE07B6A9B0019
:10166C0028333B4413F81C1C7B6A9B0028333B44F7
:10167C0033F81A3C1A467868FFF712FF034687F8CE
:10168C00233097F82330002B02D097F823302AE030
:10169C007B6A01337B627B6A042BDFD97B680E3358
:1016AC001A460B217868FFF737FF034687F823307B
:1016BC0097F82330002B02D097F8233013E07B6887
:1016CC00DB8903F00103002B06D17B681B8A43F0F6
:1016DC0001039AB27B681A827B6800229A727B683B
:1016EC0001221A76002318462837BD46B0BD00BF2C
:1016FC0034030024A436010880B582B000AF002367
:10170C00FB71164B1B7A83F00103DBB2002B01D06B
:10171C0004231FE00023BB7113E0104B5968BA7906
:10172C001346DB001344DB000B441846FFF746FF5F
:10173C000346002B02D1FB790133FB71BB790133DA
:10174C00BB71BB79032BE8D9FB79002B0CBF0123B0
:10175C000023DBB218460837BD4680BD3403002495
:10176C0080B500AF01F0F0FB0346064A1362054B4F
:10177C009B690133034A9361024B02225A7200BFE8
:10178C0080BD00BF3403002480B584B002AF42E0BA
:10179C00274BDA68264BDB7ADBB25B0013447B60A9
:1017AC0001F0D2FB0346224A5361214B1868204BAF
:1017BC005A681F4B9B7ADBB219460B46DB000B4475
:1017CC00DB0013441B785B0099B27B681B781A46CC
:1017DC007B685B780193174B0093012305F0A0F80D
:1017EC000346002B1FD0124B5A68114B9B7ADBB26D
:1017FC0019460B46DB000B44DB0013445A690132DB
:10180C005A610B4B0022DA72094B9B7ADBB2013323
:10181C00DAB2074B9A72064B9B7ADBB2032BB7D921
:10182C00FFF79EFF00E000BF0837BD4680BD00BF3C
:10183C00340300246003003090B583B000AF03463E
:10184C00FB71FB79002B1ED01D4BDB7ADBB2013315
:10185C00DBB21B4A1946D172194A127C934202D24E
:10186C00FFF792FF29E0164B5A68154B9B7ADBB2B7
:10187C0019460B46DB000B44DB00D41801F064FB6B
:10188C00034623630DE00E4B5A680D4B9B7ADBB27B
:10189C0019460B46DB000B44DB0013445A6901323A
:1018AC005A61074B0022DA72054B9B7ADBB201338B
:1018BC00DAB2034B9A72FFF767FF0C37BD4690BD47
:1018CC003403002480B500AF114B1B7A83F0010365
:1018DC00DBB2002B01D0042318E00D4B5B7ADBB29A
:1018EC00012B01D1032311E0094B0A4ADA60084BA2
:1018FC0004221A74064B00229A72054B0022DA72EB
:10190C00034B01225A72FFF73FFF0023184680BD9C
:10191C0034030024B836010880B582B000AF78607B
:10192C00144B1B687A689A421FD1124B5B7ADBB25C
:10193C00012B1AD10F4B5A680E4B9B7ADBB219460E
:10194C000B46DB000B44DB00D0180A4BDA68094B62
:10195C00DB7ADBB25B0013441B78074A1946FFF7AE
:10196C00E3FC0120FFF768FF00E000BF0837BD462D
:10197C0080BD00BF340300246003003080B582B00A
:10198C0000AF7860084B1B687A689A4208D1064B06
:10199C005B7ADBB2012B03D10020FFF74DFF00E097
:1019AC0000BF0837BD4680BD3403002480B400AFAF
:1019BC00034B5B7ADBB21846BD465DF8047B70477F
:1019CC0034030024B0B485B000AF7860194B5B7A57
:1019DC00DBB2022B28D17B68002B21D00023FB73B8
:1019EC001BE0144B5968FA7B1346DB001344DB00F5
:1019FC001944FA7B13465B001344DB001A467B68E0
:101A0C0013441D4601F11C040FCC0FC594E80300D0
:101A1C0085E80300FB7B0133FB73FB7B032BE0D9D5
:101A2C00044B00225A7200E000BF1437BD46B0BC14
:101A3C00704700BF3403002480B582B000AF7860DB
:101A4C001A4B5B7ADBB2012B29D1184B5B697A6894
:101A5C00D31A0A2B25D972B600BF144B00225A7226
:101A6C0062B600BF114B1868104B5A680F4B9B7A2B
:101A7C00DBB219460B46DB000B44DB0013441B782E
:101A8C005B009BB2194605F031F8084B1B6800222D
:101A9C005A64064BDB690133044AD36102E000BF90
:101AAC0000E000BF0837BD4680BD00BF34030024F2
:101ABC0080B485B000AF0346FB80174B1B7A83F0D4
:101ACC000103DBB2002B20D10023FB7319E0124B76
:101ADC005968FA7B1346DB001344DB000B441B896B
:101AEC00FA889A420AD10C4B5968FA7B1346DB00F0
:101AFC001344DB000B4401229A7207E0FB7B013399
:101B0C00FB73FB7B032BE2D900E000BF1437BD460F
:101B1C005DF8047B704700BF3403002480B582B0AD
:101B2C0000AF0023FB712A4B5B7ADBB2012B01D196
:101B3C00032348E00023BB7141E0254B5968BA7977
:101B4C001346DB001344DB000B443B603B689B7A81
:101B5C00DBB283F00103DBB2002B2CD13B680022FB
:101B6C009A723B680E331A460B213868FFF7D4FC87
:101B7C000346002B05D03B6801229A720123FB71AE
:101B8C001AE03B681A8A3B68DB8903F43F739BB20B
:101B9C0013439AB23B681A823B685A683B681B89AC
:101BAC001946104604F08CFB0346002B04D13B680D
:101BBC0001229A7200E000BFBB790133BB71BB7983
:101BCC00032BBAD9FB7918460837BD4680BD00BF38
:101BDC003403002480B483B000AF0346FB710D4B7B
:101BEC001B7A83F00103DBB2002B02D1FB79032BB0
:101BFC0001D9002307E0074B5968FA791346DB003B
:101C0C001344DB000B4418460C37BD465DF8047BCF
:101C1C00704700BF3403002480B582B000AF7860F9
:101C2C007868FFF779FE00BF0837BD4680BD80B5E8
:101C3C0082B000AF78607868FFF7A0FE00BF08376D
:101C4C00BD4680BD80B582B000AF0346FB80FB88EB
:101C5C001846FFF72DFF00BF0837BD4680BD80B486
:101C6C0083B000AF786039607B681B6B3A68D31A1D
:101C7C0040F2F312934294BF01230023DBB21846C7
:101C8C000C37BD465DF8047B7047000080B588B00A
:101C9C0000AF00F0BDFB654B5B6903F40033002B18
:101CAC001BD1BFF34F8F00BFBFF36F8F00BF5F4BD4
:101CBC000022C3F85022BFF34F8F00BFBFF36F8FCA
:101CCC0000BF5A4B5B69594A43F400335361BFF36D
:101CDC004F8F00BFBFF36F8F00E000BF01F0AEF875
:101CEC00534BD3F8DC30524A43F00053C2F8DC308B
:101CFC004F4BD3F8DC3003F00053BB60BB684C4B4C
:101D0C00D3F8DC304A4A43F08043C2F8DC30484B0D
:101D1C00D3F8DC3003F080437B607B6800F090F8F4
:101D2C0000F080FA00F026FA00F040F900F0FEF81E
:101D3C0000F088F900F0D2F910F088FF3D493E48D8
:101D4C00FFF70EFCFFF7D8FCFFF7E6F90023FB6169
:101D5C000023BB6100237B61322001F001F901F00B
:101D6C00F3F8F860F868FFF767FEFA68BB69D31AF6
:101D7C00092B06D9FB68BB61FEF78AFCF868FFF7F4
:101D8C0049FAFA68FB69D31A3B2B08D9FB68FB614B
:101D9C004FF48051294804F0C4FAFFF717FAFFF703
:101DAC0059F9F868FFF722FAFFF700FE0346002BFB
:101DBC00D5D1FFF7B3FEFA687B69D31AF92BCED9CC
:101DCC00FB687B610023FB742CE0FA7C19491346F9
:101DDC00DB001344DB000B4418331B78002B1BD1A6
:101DEC00FA7C1346DB001344DB00124A1344F968F7
:101DFC001846FFF734FF034683F00103DBB2002BD8
:101E0C000CD1FA7C1346DB001344DB00094A134463
:101E1C001846FFF7D3FB02E000BF00E000BFFB7CDD
:101E2C000133FB74FB7C032BCFD998E700ED00E06A
:101E3C0000440258400000245803002400080258B3
:101E4C0080B59CB000AF07F124034C22002118464A
:101E5C0011F0EAFB3B1D20220021184611F0E4FB97
:101E6C00042008F0BBFA00233B602F4B9B6923F442
:101E7C0040432D4A43F4004393612B4B9B6903F47D
:101E8C0040433B603B6800BF274B9B6903F4005306
:101E9C00B3F5005FF8D123237B624FF4A023BB6220
:101EAC0001233B6340237B630123FB630223BB645D
:101EBC000223FB6405233B6528237B650123BB655B
:101ECC000523FB6505233B6608237B660023BB6665
:101EDC000023FB6607F12403184608F0E9FA0346D1
:101EEC00002B01D000F0C0FA3F237B600323BB60C2
:101EFC000023FB6008233B6140237B614023BB61D3
:101F0C004FF48063FB6140233B623B1D012118466B
:101F1C0008F0A8FE0346002B01D000F0A5FA00BF84
:101F2C007037BD4680BD00BF0048025880B500AF79
:101F3C001B4B1C4A1A601A4B1B4A5A60184B002246
:101F4C009A60174B0122DA60154B00221A61144B70
:101F5C0000225A61124B00229A61114B0022DA6165
:101F6C000F4B00221A620E4804F010FA0346002BA5
:101F7C0001D000F079FA0021094806F0DDFE034695
:101F8C00002B01D000F070FA0221054806F01FFF6B
:101F9C000346002B01D000F067FA00BF80BD00BFE4
:101FAC0058030024005400406A1FC00080B500AFE5
:101FBC00224B234A1A60214B4FF4E1325A601F4BDB
:101FCC0000229A601D4B0022DA601C4B00221A6121
:101FDC001A4B0C225A61194B00229A61174B0022A2
:101FEC00DA61164B00221A62144B00225A62134B10
:101FFC0000229A6211480AF083FF0346002B01D09D
:10200C0000F032FA00210D480DF0C5F90346002B03
:10201C0001D000F029FA002108480DF0FAF9034626
:10202C00002B01D000F020FA04480DF07BF9034698
:10203C00002B01D000F018FA00BF80BD9C040024D6
:10204C00004C004080B500AF224B234A1A60214B54
:10205C004FF4E1325A601F4B00229A601D4B002254
:10206C00DA601C4B00221A611A4B0C225A61194B74
:10207C0000229A61174B0022DA61164B00221A6279
:10208C00144B00225A62134B00229A6211480AF038
:10209C0037FF0346002B01D000F0E6F900210D4874
:1020AC000DF079F90346002B01D000F0DDF9002189
:1020BC0008480DF0AEF90346002B01D000F0D4F91E
:1020CC0004480DF02FF90346002B01D000F0CCF999
:1020DC0000BF80BD300500240050004080B500AF2B
:1020EC00224B234A1A60214B4FF4E1325A601F4BAA
:1020FC0000229A601D4B0022DA601C4B00221A61F0
:10210C001A4B0C225A61194B00229A61174B002270
:10211C00DA61164B00221A62144B00225A62134BDE
:10212C0000229A6211480AF0EBFE0346002B01D004
:10213C0000F09AF900210D480DF02DF90346002B03
:10214C0001D000F091F9002108480DF062F9034626
:10215C00002B01D000F088F904480DF0E3F8034699
:10216C00002B01D000F080F900BF80BDC405002415
:10217C000010014080B582B000AF294BD3F8D830A5
:10218C00274A43F00103C2F8D830254BD3F8D83096
:10219C0003F001037B607B68002203210B2000F01D
:1021AC00DEFF0B2000F0F5FF002203210C2000F0D5
:1021BC00D6FF0C2000F0EDFF002205210D2000F0D1
:1021CC00CEFF0D2000F0E5FF002205210E2000F0CF
:1021DC00C6FF0E2000F0DDFF002205210F2000F0CD
:1021EC00BEFF0F2000F0D5FF00220621102000F0CA
:1021FC00B6FF102000F0CDFF00220621112000F0C8
:10220C00AEFF112000F0C5FF002206212F2000F0A8
:10221C00A6FF2F2000F0BDFF00BF0837BD4680BDD4
:10222C000044025880B58AB000AF07F114030022B5
:10223C001A605A609A60DA601A61704BD3F8E03019
:10224C006E4A43F00403C2F8E0306C4BD3F8E03034
:10225C0003F004033B613B69684BD3F8E030674AF9
:10226C0043F08003C2F8E030644BD3F8E03003F065
:10227C008003FB60FB68614BD3F8E0305F4A43F0AE
:10228C000103C2F8E0305D4BD3F8E03003F00103FA
:10229C00BB60BB68594BD3F8E030584A43F002039B
:1022AC00C2F8E030554BD3F8E03003F002037B600A
:1022BC007B68524BD3F8E030504A43F00803C2F825
:1022CC00E0304E4BD3F8E03003F008033B603B6842
:1022DC00002204214A4804F00BF8002240F2046169
:1022EC00484804F005F800224FF4D251464803F058
:1022FC00FFFF00220421454803F0FAFF04237B6111
:10230C000123BB610023FB6100233B6207F1140333
:10231C0019463B4803F022FE08237B610023BB6176
:10232C000123FB6107F114031946354803F016FE2F
:10233C00F0237B614FF40413BB610123FB6107F1B4
:10234C00140319462E4803F009FE30237B61002349
:10235C00BB610023FB6107F1140319462A4803F003
:10236C00FDFD03237B610023BB610023FB6107F1AF
:10237C0014031946234803F0F1FD40F204637B611A
:10238C000123BB610023FB6100233B6207F11403B3
:10239C0019461C4803F0E2FD4FF4D2537B61012334
:1023AC00BB610023FB6100233B6207F11403194658
:1023BC00154803F0D3FD04237B610123BB6100238B
:1023CC00FB6100233B6207F1140319460F4803F02D
:1023DC00C5FD002204210A2000F0C1FE0A2000F0F5
:1023EC00D8FE00220421172000F0B9FE172000F0BF
:1023FC00D0FE00BF2837BD4680BD00BF0044025848
:10240C00000002580004025800080258000C025840
:10241C0080B584B000AF3B4600221A605A609A60C7
:10242C00DA6000F0D1FE01233B7000237B700023A7
:10243C007B601F233B7287237B720023BB720023BC
:10244C00FB7201233B7301237B730023BB730023BB
:10245C00FB733B46184600F0EFFE042000F0CCFE68
:10246C0000BF1037BD4680BD80B400AF72B600BF50
:10247C0000BFFDE780B483B000AF0A4BD3F8F43053
:10248C00084A43F00203C2F8F430064BD3F8F43098
:10249C0003F002037B607B6800BF0C37BD465DF820
:1024AC00047B70470044025880B5B8B000AF786028
:1024BC0007F1CC0300221A605A609A60DA601A6144
:1024CC0007F11003B8220021184611F0ADF87B6813
:1024DC001B685D4A934240F0B3804FF008024FF006
:1024EC000003C7E904234FF40053C7F8903007F1F9
:1024FC001003184608F042FF0346002B01D0FFF7EB
:10250C00B3FF524BD3F8E030504A43F00203C2F809
:10251C00E0304E4BD3F8E03003F00203FB60FB6875
:10252C00C023C7F8CC301223C7F8D0300023C7F82B
:10253C00D4300023C7F8D8300423C7F8DC3007F1B7
:10254C00CC031946424803F009FD404BD3F8E83060
:10255C003E4A43F40013C2F8E8303C4BD3F8E83061
:10256C0003F40013BB60BB683A4B3B4A1A60394B0F
:10257C0021225A60374B00229A60364B0022DA60D7
:10258C00344B4FF480621A61324B00225A61314B4A
:10259C0000229A612F4B0022DA612E4B4FF48032CD
:1025AC001A622C4B00225A622A4800F085FE034620
:1025BC00002B01D0FFF758FF7B68264ADA63254AC7
:1025CC007B689363254B264A1A60244B22225A605F
:1025DC00224B40229A60214B0022DA601F4B4FF4B1
:1025EC0080621A611D4B00225A611C4B00229A61B9
:1025FC001A4B0022DA61194B4FF480321A62174BD6
:10260C0000225A62154800F057FE0346002B01D0F9
:10261C00FFF72AFF7B68114A9A63104A7B68936321
:10262C00002203211F2000F09AFD1F2000F0B1FDB5
:10263C0000220321202000F092FD202000F0A9FDB3
:10264C0000BFE037BD4680BD005400400044025836
:10265C0000040258AC03002410000240240400249F
:10266C002800024080B5BCB000AF786007F1DC03F5
:10267C0000221A605A609A60DA601A6107F120032E
:10268C00B8220021184610F0CFFF7B681B68B04AB7
:10269C00934240F0AB804FF002024FF00003C7E9C9
:1026AC0008230023C7F8943007F12003184608F0DC
:1026BC0065FE0346002B01D0FFF7D6FEA54BD3F8E1
:1026CC00E830A44A43F40023C2F8E830A14BD3F815
:1026DC00E83003F40023FB61FB699E4BD3F8E03038
:1026EC009C4A43F00103C2F8E0309A4BD3F8E03037
:1026FC0003F00103BB61BB690323C7F8DC30022381
:10270C00C7F8E0300023C7F8E4300023C7F8E830FE
:10271C000823C7F8EC3007F1DC0319468E4803F0A8
:10272C001DFC8E4B8E4A1A608C4B40225A608B4B90
:10273C0040229A60894B0022DA60884B4FF4806209
:10274C001A61864B00225A61844B00229A61834B9A
:10275C000022DA61814B00221A62804B00225A62FD
:10276C007E4800F0A9FD0346002B01D0FFF77CFE4C
:10277C007B687A4ADA67794A7B689363794B7A4A41
:10278C001A60784B3F225A60764B00229A60754B48
:10279C000022DA60734B4FF480621A61714B002295
:1027AC005A61704B00229A616E4B4FF48072DA6161
:1027BC006C4B00221A626B4B00225A62694800F083
:1027CC007BFD0346002B01D0FFF74EFE7B68654A6C
:1027DC00C3F88020634A7B68936300220521342070
:1027EC0000F0BDFC342000F0D4FC7CE17B681B685D
:1027FC005E4A934240F0C6804FF002024FF0000355
:10280C00C7E908230023C7F8943007F120031846C2
:10281C0008F0B4FD0346002B01D0FFF725FE4D4B0D
:10282C00D3F8E8304B4A43F48013C2F8E830494BF4
:10283C00D3F8E83003F480137B617B69454BD3F804
:10284C00E030444A43F00203C2F8E030414BD3F885
:10285C00E03003F002033B613B694FF44053C7F88F
:10286C00DC300223C7F8E0300023C7F8E430002343
:10287C00C7F8E8300E23C7F8EC3007F1DC03194633
:10288C003B4803F06BFB3B4B3B4A1A60394B4222F3
:10289C005A60384B40229A60364B0022DA60354B36
:1028AC004FF480621A61334B00225A61314B002283
:1028BC009A61304B0022DA612E4B00221A622D4BAA
:1028CC0000225A622B4800F0F7FC0346002B01D083
:1028DC00FFF7CAFD7B68274ADA67264A7B68936351
:1028EC00264B274A1A60254B41225A60234B002263
:1028FC009A60224B0022DA60204B4FF480621A61FE
:10290C001E4B00225A611D4B00229A611B4B4FF447
:10291C008072DA61194B00221A62184B00225A623B
:10292C00164800F0C9FC0346002B01D0FFF79CFDB4
:10293C007B68124AC3F88020104A7B68936300229C
:10294C000521352000F00BFC352000F022FCCAE0FC
:10295C00004C004000440258000002585806002465
:10296C0070000240D0060024A0000240005000403D
:10297C00000402584807002458000240C0070024F5
:10298C00B80002407B681B68594A934240F0AB8008
:10299C004FF001024FF00003C7E908230023C7F8EA
:1029AC00983007F12003184608F0E8FC0346002B8A
:1029BC0001D0FFF759FD4F4BD3F8F0304D4A43F09F
:1029CC001003C2F8F0304B4BD3F8F03003F0100387
:1029DC00FB60FB68474BD3F8E030464A43F00203F8
:1029EC00C2F8E030434BD3F8E03003F00203BB6095
:1029FC00BB684FF44043C7F8DC300223C7F8E03023
:102A0C000023C7F8E4300023C7F8E8300423C7F8E4
:102A1C00EC3007F1DC031946374803F09FFA374BCB
:102A2C00374A1A60354B2A225A60344B40229A603E
:102A3C00324B0022DA60314B4FF480621A612F4B1B
:102A4C0000225A612D4B00229A612C4B0022DA6134
:102A5C002A4B00221A62294B00225A62274800F0A6
:102A6C002BFC0346002B01D0FFF7FEFC7B68234AAE
:102A7C00DA67224A7B689363224B234A1A60214B04
:102A8C0029225A601F4B00229A601E4B0022DA60EA
:102A9C001C4B4FF480621A611A4B00225A61194B7D
:102AAC0000229A61174B4FF48072DA61154B0022A9
:102ABC001A62144B00225A62124800F0FDFB0346C6
:102ACC00002B01D0FFF7D0FC7B680E4AC3F88020A6
:102ADC000C4A7B68936300220521252000F03FFB04
:102AEC00252000F056FB00BFF037BD4680BD00BF6F
:102AFC000010014000440258000402583808002419
:102B0C0040000240B00800248800024080B400AFAE
:102B1C0000BFFDE780B400AF00BFFDE780B400AF9D
:102B2C0000BFFDE780B400AF00BFFDE780B400AF8D
:102B3C0000BFFDE780B400AF00BFBD465DF8047B6D
:102B4C00704780B400AF00BFBD465DF8047B704792
:102B5C0080B400AF00BFBD465DF8047B704780B504
:102B6C0000AF00F0DDF900BF80BD80B500AF1020D4
:102B7C0003F0F1FB00BF80BD80B500AF024801F04F
:102B8C00C1FE00BF80BD00BFAC03002480B500AF08
:102B9C00024801F0B7FE00BF80BD00BF2404002432
:102BAC0080B500AF024801F0ADFE00BF80BD00BF94
:102BBC003808002480B500AF024801F0A3FE00BF26
:102BCC0080BD00BF4807002480B500AF024801F06B
:102BDC0099FE00BF80BD00BF5806002480B500AF31
:102BEC00024801F08FFE00BF80BD00BFB00800247A
:102BFC0080B500AF024801F085FE00BF80BD00BF6C
:102C0C00D006002480B500AF202003F0A4FB4020A8
:102C1C0003F0A1FB802003F09EFB00BF80BD0000F1
:102C2C0080B500AF024803F0B5FF00BF80BD00BF08
:102C3C005803002480B500AF024803F0C5FF00BF65
:102C4C0080BD00BF5803002480B500AF02480AF0D5
:102C5C000DFB00BF80BD00BFC405002480B500AFD4
:102C6C00024801F04FFE00BF80BD00BFC00700242A
:102C7C0080B500AF02480AF0F9FA00BF80BD00BF72
:102C8C009C04002480B500AF02480AF0EFFA00BFA4
:102C9C0080BD00BF3005002480B500AF024806F0AF
:102CAC0023FA00BF80BD00BF0C1E002480B400AF0F
:102CBC003E4BD3F888303D4A43F47003C2F8883059
:102CCC003B4B1B6803F00F03062B07D8384B1B68D4
:102CDC0023F00F03364A43F007031360354B1B6890
:102CEC00344A43F001031360324B00221A61314B1A
:102CFC001A683049304B13400B602D4B1B6803F0A6
:102D0C000803002B07D02A4B1B6823F00F03284A1B
:102D1C0043F007031360274B00229A61254B0022D6
:102D2C00DA61244B00221A62224B244A9A62214B0C
:102D3C00234ADA621F4B234A1A631E4B00225A6342
:102D4C001C4B204A9A631B4B0022DA63194B1D4A19
:102D5C001A64184B00225A64164B1B68154A23F44C
:102D6C0080231360134B00221A66124BD3F8D43015
:102D7C0003F48053002B13D10E4BD3F8D4300D4AEF
:102D8C0043F48053C2F8D4300F4B43F2D2021A6092
:102D9C00084BD3F8D430074A23F48053C2F8D4300C
:102DAC0000BFBD465DF8047B704700BF00ED00E03E
:102DBC0000200052004402587FEDF6EA00020202A5
:102DCC000000FF018002010100400052044BDA6850
:102DDC0022F00202DA605A689204FCD5704700BFF8
:102DEC0000480258DFF838D0FFF7F0FFFFF75EFF1E
:102DFC000C480D490D4A002302E0D458C45004334A
:102E0C00C4188C42F9D30A4A0A4C002301E013601F
:102E1C000432A242FBD310F00FFCFEF737FFFEE7A3
:102E2C000000052400000024640200245837010827
:102E3C006402002410250024FEE7000080B582B057
:102E4C0000AF032000F080F908F0C2F80246154BE1
:102E5C009B691B0A03F00F031349CB5C03F01F03A0
:102E6C0022FA03F37B600F4B9B6903F00F030E4AAE
:102E7C00D35C03F01F037A6822FA03F30B4A136046
:102E8C000B4A7B6813600F2000F014F80346002BEC
:102E9C0001D0012302E0FFF7EDFA002318460837B2
:102EAC00BD4680BD00440258C036010864010024B0
:102EBC006001002480B582B000AF7860154B1B78A0
:102ECC00002B01D1012321E0134B1A68114B1B7805
:102EDC0019464FF47A73B3FBF1F3B2FBF3F31846D4
:102EEC0000F065F90346002B01D001230EE07B684E
:102EFC000F2B0AD8002279684FF0FF3000F02FF921
:102F0C00064A7B681360002300E00123184608374B
:102F1C00BD4680BD6C0100246001002468010024C2
:102F2C0080B400AF064B1B781A46064B1B68134443
:102F3C00044A136000BFBD465DF8047B704700BFB8
:102F4C006C0100242809002480B400AF034B1B68DB
:102F5C001846BD465DF8047B704700BF2809002465
:102F6C0080B584B000AF7860FFF7EEFFB8607B6887
:102F7C00FB60FB68B3F1FF3F05D00A4B1B781A4688
:102F8C00FB681344FB6000BFFFF7DEFF0246BB6823
:102F9C00D31AFA689A42F7D800BF00BF1037BD4663
:102FAC0080BD00BF6C01002480B485B000AF786098
:102FBC007B6803F00703FB600B4BDB68BB60BA68F4
:102FCC004FF6FF031340BB60FB681A02BB681A4341
:102FDC00064B1343BB60044ABB68D36000BF143775
:102FEC00BD465DF8047B704700ED00E00000FA057B
:102FFC0080B400AF044BDB681B0A03F007031846D0
:10300C00BD465DF8047B704700ED00E080B483B0F2
:10301C0000AF0346FB80B7F90630002B0BDBFB88B7
:10302C0003F01F020749B7F906305B09012000FACB
:10303C0002F241F8232000BF0C37BD465DF8047B3B
:10304C00704700BF00E100E080B483B000AF0346DE
:10305C003960FB80B7F90630002B0ADB3B68DAB22B
:10306C000C49B7F906301201D2B20B4483F8002395
:10307C000AE03B68DAB20849FB8803F00F03043B13
:10308C001201D2B20B441A7600BF0C37BD465DF864
:10309C00047B704700E100E000ED00E080B489B0F3
:1030AC0000AFF860B9607A60FB6803F00703FB615E
:1030BC00FB69C3F10703042B28BF0423BB61FB6925
:1030CC000433062B02D9FB69033B00E000237B6130
:1030DC004FF0FF32BB6902FA03F3DA43BB681A40C4
:1030EC007B699A404FF0FF317B6901FA03F3D943B6
:1030FC007B680B40134318462437BD465DF8047BB0
:10310C007047000080B582B000AF78607B68013BEF
:10311C00B3F1807F01D301230FE00A4A7B68013BA6
:10312C0053600F214FF0FF30FFF78EFF054B00224D
:10313C009A60044B07221A60002318460837BD46D4
:10314C0080BD00BF10E000E080B582B000AF7860B9
:10315C007868FFF729FF00BF0837BD4680BD80B5F2
:10316C0086B000AF0346B9607A60FB81FFF740FF81
:10317C0078617A68B9687869FFF790FF0246B7F909
:10318C000E3011461846FFF75FFF00BF1837BD46DB
:10319C0080BD80B582B000AF0346FB80B7F9063026
:1031AC001846FFF733FF00BF0837BD4680BD80B51A
:1031BC0082B000AF78607868FFF7A4FF034618462A
:1031CC000837BD4680BD000080B400AFBFF35F8FF1
:1031DC0000BF074B5B6A064A23F480335362054BEE
:1031EC0000225A6000BFBD465DF8047B704700BFEB
:1031FC0000ED00E090ED00E080B483B000AF7860AB
:10320C000B4A7B6843F0010353600A4B5B6A094A23
:10321C0043F480335362BFF34F8F00BFBFF36F8F04
:10322C0000BF00BF0C37BD465DF8047B704700BF84
:10323C0090ED00E000ED00E080B483B000AF78606A
:10324C007B685A781B4B9A601A4B1B69194A23F0FE
:10325C0001031361174A7B685B68D3607B681B7B37
:10326C001A077B68DB7A1B061A437B689B7ADB04A4
:10327C001A437B685B7B9B041A437B689B7B5B04D8
:10328C001A437B68DB7B1B041A437B685B7A1B024B
:10329C001A437B681B7A5B0013437A6812781146D9
:1032AC00044A0B43136100BF0C37BD465DF8047B29
:1032BC00704700BF90ED00E080B586B000AF78603D
:1032CC00FFF742FE38617B68002B01D1012312E32A
:1032DC007B681B68664A93424AD07B681B68654AC8
:1032EC00934245D07B681B68634A934240D07B680D
:1032FC001B68624A93423BD07B681B68604A9342CE
:10330C0036D07B681B685F4A934231D07B681B6860
:10331C005D4A93422CD07B681B685C4A934227D051
:10332C007B681B685A4A934222D07B681B68594AB7
:10333C0093421DD07B681B68574A934218D07B6818
:10334C001B68564A934213D07B681B68544A9342BD
:10335C000ED07B681B68534A934209D07B681B686C
:10336C00514A934204D07B681B68504A934201D166
:10337C00012300E00023002B00F03C817B6802223B
:10338C0083F835207B68002283F834207B681B6827
:10339C00374A93424AD07B681B68364A934245D0E1
:1033AC007B681B68344A934240D07B681B68334A65
:1033BC0093423BD07B681B68314A934236D07B6882
:1033CC001B68304A934231D07B681B682E4A93426B
:1033DC002CD07B681B682D4A934227D07B681B68D6
:1033EC002B4A934222D07B681B682A4A93421DD0F9
:1033FC007B681B68284A934218D07B681B68274A55
:10340C00934213D07B681B68254A93420ED07B688D
:10341C001B68244A934209D07B681B68224A93425A
:10342C0004D07B681B68214A934208D17B681B68D7
:10343C001A687B681B6822F001021A6007E07B683F
:10344C001B681A687B681B6822F001021A602FE067
:10345C00FFF77AFD02463B69D31A052B28D97B6806
:10346C0020225A657B68032283F83520012342E22F
:10347C001000024028000240400002405800024068
:10348C007000024088000240A0000240B8000240D8
:10349C001004024028040240400402405804024038
:1034AC007004024088040240A0040240B8040240A8
:1034BC007B681B681B6803F00103002BC8D17B6879
:1034CC001B681B687B617A69834B13407B617B684B
:1034DC009A687B68DB681A437B681B691A437B68B4
:1034EC005B691A437B689B691A437B68DB691A43E7
:1034FC007B681B6A13437A6913437B617B685B6A45
:10350C00042B07D17B68DA6A7B681B6B13437A69DF
:10351C0013437B617B685B68282B03D97B685B68F2
:10352C002E2B1FD97B685B683E2B03D97B685B68AD
:10353C00422B17D97B685B68462B03D97B685B6889
:10354C00482B0FD97B685B684E2B03D97B685B6873
:10355C00522B07D97B685B68732B05D97B685B683A
:10356C00772B01D8012300E00023002B03D07B69CB
:10357C0043F480137B617B681B687A691A607B68F3
:10358C001B685B697B617B6923F007037B617B684C
:10359C005B6A7A6913437B617B685B6A042B17D186
:1035AC007B689B6A7A6913437B617B68DB6A002BBF
:1035BC000ED0786802F048FB0346002B08D07B68DD
:1035CC0040225A657B68012283F83520012392E161
:1035DC007B681B687A695A61786802F083FA034643
:1035EC00BB607B68DB6D03F01F033F229A40BB6816
:1035FC009A60C8E07B681B68384A934222D07B688B
:10360C001B68374A93421DD07B681B68354A93422E
:10361C0018D07B681B68344A934213D07B681B68B4
:10362C00324A93420ED07B681B68314A934209D0D0
:10363C007B681B682F4A934204D07B681B682E4A18
:10364C00934201D1012300E00023002B00F0928073
:10365C007B681B68214A934221D07B681B68204AF7
:10366C0093421CD07B681B681E4A934217D07B6820
:10367C001B681D4A934212D07B681B681B4A9342FD
:10368C000DD07B681B681A4A934208D07B681B6874
:10369C00184A934203D07B681B68174A93427B6895
:1036AC00022283F835207B68002283F834207B6863
:1036BC001B681B687B617A69104B13407B617B68CC
:1036CC009B68402B1CD07B689B68802B02D14FF4ED
:1036DC00804316E0002314E03F8010FE085402588B
:1036EC001C5402583054025844540258585402582E
:1036FC006C54025880540258945402580F00FEFF28
:10370C0010237A68D268D2081A437B681B69DB08DD
:10371C001A437B685B69DB081A437B689B69DB088F
:10372C001A437B68DB69DB081A437B681B6A1B093D
:10373C0013437A6913437B617B681B687A691A604F
:10374C007B681B681A466E4B13446E4AA2FB03231C
:10375C001B099A007B68DA65786802F0C3F90346A6
:10376C00FB607B68DB6D03F01F0301229A40FB6852
:10377C005A6008E07B6840225A657B68032283F814
:10378C0035200123B7E07B681B685F4A934272D0F7
:10379C007B681B685D4A93426DD07B681B685C4AF2
:1037AC00934268D07B681B685A4A934263D07B680B
:1037BC001B68594A93425ED07B681B68574A9342F8
:1037CC0059D07B681B68564A934254D07B681B685F
:1037DC00544A93424FD07B681B68534A93424AD059
:1037EC007B681B68514A934245D07B681B68504AE2
:1037FC00934240D07B681B684E4A93423BD07B6817
:10380C001B684D4A934236D07B681B684B4A9342E7
:10381C0031D07B681B684A4A93422CD07B681B686A
:10382C00484A934227D07B681B68474A934222D070
:10383C007B681B68454A93421DD07B681B68444AD1
:10384C00934218D07B681B68424A934213D07B6822
:10385C001B68414A93420ED07B681B683F4A9342D7
:10386C0009D07B681B683E4A934204D07B681B6876
:10387C003C4A934201D1012300E00023002B32D0BB
:10388C00786802F05DFA7B689B68802B02D17B68BC
:10389C0000225A607B685A687B681B6ED2B21A6031
:1038AC007B685B6E7A68926E5A607B685B68002BF3
:1038BC0010D07B685B68082B0CD8786802F0DAFAB9
:1038CC007B68DB6E00221A607B681B6F7A68526F14
:1038DC005A6008E07B680022DA667B6800221A676F
:1038EC007B6800225A677B6800225A657B6801223C
:1038FC0083F83520002318461837BD4680BD00BF1D
:10390C00F8ABFDA7CDCCCCCC100002402800024077
:10391C004000024058000240700002408800024003
:10392C00A0000240B80002401004024028040240EB
:10393C0040040240580402407004024088040240D3
:10394C00A0040240B8040240085402581C54025807
:10395C003054025844540258585402586C5402586B
:10396C00805402589454025880B586B000AFF86069
:10397C00B9607A603B600023FB75FB68002B01D1BA
:10398C00012326E2FB6893F83430012B01D102238A
:10399C001FE2FB68012283F83420FB6893F8353072
:1039AC00DBB2012B40F00A82FB68022283F835203F
:1039BC00FB6800225A65FB681B68684A93424AD030
:1039CC00FB681B68664A934245D0FB681B68654AD6
:1039DC00934240D0FB681B68634A93423BD0FB6820
:1039EC001B68624A934236D0FB681B68604A93425C
:1039FC0031D0FB681B685F4A93422CD0FB681B6874
:103A0C005D4A934227D0FB681B685C4A934222D0E4
:103A1C00FB681B685A4A93421DD0FB681B68594AC5
:103A2C00934218D0FB681B68574A934213D0FB682B
:103A3C001B68564A93420ED0FB681B68544A93424B
:103A4C0009D0FB681B68534A934204D0FB681B687F
:103A5C00514A934208D1FB681B681A68FB681B68C3
:103A6C0022F001021A6007E0FB681B681A68FB6809
:103A7C001B6822F001021A603B687A68B968F86822
:103A8C0001F084FEFB681B68344A93424AD0FB6801
:103A9C001B68334A934245D0FB681B68314A9342FA
:103AAC0040D0FB681B68304A93423BD0FB681B68D4
:103ABC002E4A934236D0FB681B682D4A934231D074
:103ACC00FB681B682B4A93422CD0FB681B682A4A64
:103ADC00934227D0FB681B68284A934222D0FB688C
:103AEC001B68274A93421DD0FB681B68254A9342EA
:103AFC0018D0FB681B68244A934213D0FB681B68E0
:103B0C00224A93420ED0FB681B68214A934209D08B
:103B1C00FB681B681F4A934204D0FB681B681E4A53
:103B2C00934201D1012300E00023002B36D0FB6827
:103B3C001B681B6823F01E02FB681B6842F0160210
:103B4C001A60FB681B6C002B3ED0FB681B681A6864
:103B5C00FB681B6842F008021A6035E01000024056
:103B6C002800024040000240580002407000024011
:103B7C0088000240A0000240B8000240100402403D
:103B8C0028040240400402405804024070040240E1
:103B9C0088040240A0040240B8040240FB681B6881
:103BAC001B6823F00E02FB681B6842F00A021A60C5
:103BBC00FB681B6C002B07D0FB681B681A68FB6842
:103BCC001B6842F004021A60FB681B68834A93422C
:103BDC0072D0FB681B68824A93426DD0FB681B68ED
:103BEC00804A934268D0FB681B687F4A934263D03B
:103BFC00FB681B687D4A93425ED0FB681B687C4A5D
:103C0C00934259D0FB681B687A4A934254D0FB68A4
:103C1C001B68794A93424FD0FB681B68774A9342E2
:103C2C004AD0FB681B68764A934245D0FB681B68F8
:103C3C00744A934240D0FB681B68734A93423BD052
:103C4C00FB681B68714A934236D0FB681B68704A4C
:103C5C00934231D0FB681B686E4A93422CD0FB68B0
:103C6C001B686D4A934227D0FB681B686B4A9342D2
:103C7C0022D0FB681B686A4A93421DD0FB681B6804
:103C8C00684A934218D0FB681B68674A934213D06A
:103C9C00FB681B68654A93420ED0FB681B68644A3C
:103CAC00934209D0FB681B68624A934204D0FB68BC
:103CBC001B68614A934201D1012300E00023002BD1
:103CCC001AD0FB681B6E1B6803F48033002B07D0E3
:103CDC00FB681B6E1A68FB681B6E42F480721A60DC
:103CEC00FB68DB6E002B07D0FB68DB6E1A68FB6889
:103CFC00DB6E42F480721A60FB681B68374A934291
:103D0C004AD0FB681B68364A934245D0FB681B6857
:103D1C00344A934240D0FB681B68334A93423BD0F1
:103D2C00FB681B68314A934236D0FB681B68304AEB
:103D3C00934231D0FB681B682E4A93422CD0FB680F
:103D4C001B682D4A934227D0FB681B682B4A934271
:103D5C0022D0FB681B682A4A93421DD0FB681B6863
:103D6C00284A934218D0FB681B68274A934213D009
:103D7C00FB681B68254A93420ED0FB681B68244ADB
:103D8C00934209D0FB681B68224A934204D0FB681B
:103D9C001B68214A934208D1FB681B681A68FB68B0
:103DAC001B6842F001021A6012E0FB681B681A687B
:103DBC00FB681B6842F001021A6009E0FB684FF4D3
:103DCC0000625A65FB68002283F834200123FB75DE
:103DDC00FB7D18461837BD4680BD00BF1000024061
:103DEC00280002404000024058000240700002408F
:103DFC0088000240A0000240B800024010040240BB
:103E0C00280402404004024058040240700402405E
:103E1C0088040240A0040240B8040240085402582E
:103E2C001C540258305402584454025858540258E6
:103E3C006C540258805402589454025880B586B081
:103E4C0000AF7860FFF780F838617B68002B01D1F8
:103E5C000123DCE27B6893F83530DBB2022B08D00F
:103E6C007B6880225A657B68002283F8342001230A
:103E7C00CDE27B681B68644A93424AD07B681B681E
:103E8C00624A934245D07B681B68614A934240D09A
:103E9C007B681B685F4A93423BD07B681B685E4A19
:103EAC00934236D07B681B685C4A934231D07B6866
:103EBC001B685B4A93422CD07B681B68594A93421F
:103ECC0027D07B681B68584A934222D07B681B68BA
:103EDC00564A93421DD07B681B68554A934218D0B2
:103EEC007B681B68534A934213D07B681B68524A09
:103EFC0093420ED07B681B68504A934209D07B6872
:103F0C001B684F4A934204D07B681B684D4A93420E
:103F1C0008D17B681B681A687B681B6822F0010259
:103F2C001A6007E07B681B681A687B681B6822F0C4
:103F3C0001021A607B681B68334A93424AD07B6843
:103F4C001B68324A934245D07B681B68304A9342C7
:103F5C0040D07B681B682F4A93423BD07B681B6820
:103F6C002D4A934236D07B681B682C4A934231D041
:103F7C007B681B682A4A93422CD07B681B68294AB1
:103F8C00934227D07B681B68274A934222D07B68D8
:103F9C001B68264A93421DD07B681B68244A9342B7
:103FAC0018D07B681B68234A934213D07B681B682C
:103FBC00214A93420ED07B681B68204A934209D059
:103FCC007B681B681E4A934204D07B681B681D4AA1
:103FDC00934201D1012300E00023002B34D07B68F5
:103FEC001B681A687B681B6822F01E021A607B68CB
:103FFC001B685A697B681B6822F080025A617B68D7
:10400C001B687B612BE000BF1000024028000240BF
:10401C0040000240580002407000024088000240FC
:10402C00A0000240B80002401004024028040240E4
:10403C0040040240580402407004024088040240CC
:10404C00A0040240B80402407B681B681A687B68B5
:10405C001B6822F00E021A607B681B687B617B6810
:10406C001B687F4A934272D07B681B687D4A9342DF
:10407C006DD07B681B687C4A934268D07B681B6858
:10408C007A4A934263D07B681B68794A93425ED02C
:10409C007B681B68774A934259D07B681B68764AC9
:1040AC00934254D07B681B68744A93424FD07B6810
:1040BC001B68734A93424AD07B681B68714A9342CF
:1040CC0045D07B681B68704A934240D07B681B6864
:1040DC006E4A93423BD07B681B686D4A934236D044
:1040EC007B681B686B4A934231D07B681B686A4AB9
:1040FC0093422CD07B681B68684A934227D07B681C
:10410C001B68674A934222D07B681B68654A9342BE
:10411C001DD07B681B68644A934218D07B681B686F
:10412C00624A934213D07B681B68614A93420ED05B
:10413C007B681B685F4A934209D07B681B685E4AA8
:10414C00934204D07B681B685C4A934201D10123E3
:10415C0000E00023002B1CD07B681B6E1A687B6868
:10416C001B6E22F480721A6013E0FEF7EDFE02461D
:10417C003B69D31A052B0CD97B6820225A657B68C6
:10418C00032283F835207B68002283F83420012336
:10419C003DE17B691B6803F00103002BE5D17B68D3
:1041AC001B682F4A93424AD07B681B682D4A934266
:1041BC0045D07B681B682C4A934240D07B681B68B7
:1041CC002A4A93423BD07B681B68294A934236D0DB
:1041DC007B681B68274A934231D07B681B68264A50
:1041EC0093422CD07B681B68244A934227D07B686F
:1041FC001B68234A934222D07B681B68214A934256
:10420C001DD07B681B68204A934218D07B681B68C2
:10421C001E4A934213D07B681B681D4A93420ED0F2
:10422C007B681B681B4A934209D07B681B681A4A3F
:10423C00934204D07B681B68184A934201D1012336
:10424C0000E00023002B3BD07B689B6DBB607B6840
:10425C00DB6D03F01F033F229A40BB689A603AE083
:10426C00100002402800024040000240580002406A
:10427C007000024088000240A0000240B8000240DA
:10428C00100402402804024040040240580402403A
:10429C007004024088040240A0040240B8040240AA
:1042AC00085402581C5402583054025844540258B2
:1042BC00585402586C540258805402589454025862
:1042CC007B689B6DFB607B68DB6D03F01F03012239
:1042DC009A40FB685A607B681B684F4A934272D0C5
:1042EC007B681B684D4A93426DD07B681B684C4AB7
:1042FC00934268D07B681B684A4A934263D07B68C0
:10430C001B68494A93425ED07B681B68474A9342BC
:10431C0059D07B681B68464A934254D07B681B6813
:10432C00444A93424FD07B681B68434A93424AD01D
:10433C007B681B68414A934245D07B681B68404AA6
:10434C00934240D07B681B683E4A93423BD07B68CB
:10435C001B683D4A934236D07B681B683B4A9342AC
:10436C0031D07B681B683A4A93422CD07B681B681F
:10437C00384A934227D07B681B68374A934222D035
:10438C007B681B68354A93421DD07B681B68344A96
:10439C00934218D07B681B68324A934213D07B68D7
:1043AC001B68314A93420ED07B681B682F4A93429C
:1043BC0009D07B681B682E4A934204D07B681B682B
:1043CC002C4A934201D1012300E00023002B15D08D
:1043DC007B685B6E7A68926E5A607B68DB6E002B32
:1043EC000CD07B68DB6E1A687B68DB6E22F4807203
:1043FC001A607B681B6F7A68526F5A607B68012267
:10440C0083F835207B68002283F83420002318467B
:10441C001837BD4680BD00BF100002402800024086
:10442C0040000240580002407000024088000240E8
:10443C00A0000240B80002401004024028040240D0
:10444C0040040240580402407004024088040240B8
:10445C00A0040240B8040240085402581C540258EC
:10446C003054025844540258585402586C54025850
:10447C00805402589454025880B584B000AF7860D0
:10448C007B68002B01D1012337E27B6893F8353030
:10449C00DBB2022B04D07B6880225A6501232CE20C
:1044AC007B681B685C4A93424AD07B681B685B4AFA
:1044BC00934245D07B681B68594A934240D07B6835
:1044CC001B68584A93423BD07B681B68564A934200
:1044DC0036D07B681B68554A934231D07B681B6889
:1044EC00534A93422CD07B681B68524A934227D084
:1044FC007B681B68504A934222D07B681B684F4AEA
:10450C0093421DD07B681B684D4A934218D07B6840
:10451C001B684C4A934213D07B681B684A4A9342EF
:10452C000ED07B681B68494A934209D07B681B6894
:10453C00474A934204D07B681B68464A934201D198
:10454C00012300E00023002B00F086807B6804220E
:10455C0083F835207B681B682F4A93424AD07B68CE
:10456C001B682E4A934245D07B681B682C4A9342A9
:10457C0040D07B681B682B4A93423BD07B681B68FE
:10458C00294A934236D07B681B68284A934231D023
:10459C007B681B68264A93422CD07B681B68254A93
:1045AC00934227D07B681B68234A934222D07B68B6
:1045BC001B68224A93421DD07B681B68204A934299
:1045CC0018D07B681B681F4A934213D07B681B680A
:1045DC001D4A93420ED07B681B681C4A934209D03B
:1045EC007B681B681A4A934204D07B681B68194A83
:1045FC00934208D17B681B681A687B681B6822F0A1
:10460C0001021A6078E17B681B681A687B681B687A
:10461C0022F001021A606FE11000024028000240F3
:10462C0040000240580002407000024088000240E6
:10463C00A0000240B80002401004024028040240CE
:10464C0040040240580402407004024088040240B6
:10465C00A0040240B80402407B681B68704A934275
:10466C004AD07B681B686F4A934245D07B681B68B5
:10467C006D4A934240D07B681B686C4A93423BD096
:10468C007B681B686A4A934236D07B681B68694A10
:10469C00934231D07B681B68674A93422CD07B686D
:1046AC001B68664A934227D07B681B68644A934216
:1046BC0022D07B681B68634A93421DD07B681B68C1
:1046CC00614A934218D07B681B68604A934213D0AE
:1046DC007B681B685E4A93420ED07B681B685D4A00
:1046EC00934209D07B681B685B4A934204D07B6879
:1046FC001B685A4A934208D17B681B681A687B680E
:10470C001B6822F001021A6007E07B681B681A68BC
:10471C007B681B6822F001021A607B681B681A68B0
:10472C007B681B6822F00E021A607B681B683C4A8F
:10473C00934272D07B681B683A4A93426DD07B6877
:10474C001B68394A934268D07B681B68374A93428E
:10475C0063D07B681B68364A93425ED07B681B68CB
:10476C00344A934259D07B681B68334A934254D0E5
:10477C007B681B68314A93424FD07B681B68304A78
:10478C0093424AD07B681B682E4A934245D07B6883
:10479C001B682D4A934240D07B681B682B4A93427E
:1047AC003BD07B681B682A4A934236D07B681B68D7
:1047BC00284A934231D07B681B68274A93422CD0FD
:1047CC007B681B68254A934227D07B681B68244A68
:1047DC00934222D07B681B68224A93421DD07B688F
:1047EC001B68214A934218D07B681B681F4A93426E
:1047FC0013D07B681B681E4A93420ED07B681B68E3
:10480C001C4A934209D07B681B681B4A934204D014
:10481C007B681B68194A934232D1012331E000BFF7
:10482C0010000240280002404000024058000240A4
:10483C007000024088000240A0000240B800024014
:10484C001004024028040240400402405804024074
:10485C007004024088040240A0040240B8040240E4
:10486C00085402581C5402583054025844540258EC
:10487C00585402586C54025880540258945402589C
:10488C000023002B28D07B681B6E1A687B681B6E7C
:10489C0022F480721A607B689B6DFB607B68DB6D19
:1048AC0003F01F0301229A40FB685A607B685B6E21
:1048BC007A68926E5A607B68DB6E002B0CD07B683A
:1048CC00DB6E1A687B68DB6E22F480721A607B6880
:1048DC001B6F7A68526F5A607B68012283F835200F
:1048EC007B68002283F834207B681B6D002B03D07F
:1048FC007B681B6D78689847002318461037BD46B7
:10490C0080BD00BF80B58AB000AF78600023FB602B
:10491C00674B1B68674AA2FB03239B0A7B627B687D
:10492C009B6D3B627B689B6DFB613B6A1B68BB614B
:10493C00FB691B687B617B681B685F4A93424AD0AA
:10494C007B681B685D4A934245D07B681B685C4A58
:10495C00934240D07B681B685A4A93423BD07B6899
:10496C001B68594A934236D07B681B68574A93425E
:10497C0031D07B681B68564A93422CD07B681B68ED
:10498C00544A934227D07B681B68534A934222D0E7
:10499C007B681B68514A93421DD07B681B68504A48
:1049AC00934218D07B681B684E4A934213D07B68A5
:1049BC001B684D4A93420ED07B681B684B4A93424E
:1049CC0009D07B681B684A4A934204D07B681B68F9
:1049DC00484A934201D1012300E00023002B00F050
:1049EC002B847B68DB6D03F01F0308229A40BB69A4
:1049FC001340002B00F0A2807B681B682E4A934268
:104A0C004AD07B681B682D4A934245D07B681B6853
:104A1C002B4A934240D07B681B682A4A93423BD076
:104A2C007B681B68284A934236D07B681B68274AF0
:104A3C00934231D07B681B68254A93422CD07B680B
:104A4C001B68244A934227D07B681B68224A9342F6
:104A5C0022D07B681B68214A93421DD07B681B685F
:104A6C001F4A934218D07B681B681E4A934213D08E
:104A7C007B681B681C4A93420ED07B681B681B4AE0
:104A8C00934209D07B681B68194A934204D07B6817
:104A9C001B68184A93422FD17B681B681B6803F074
:104AAC000403002B14BF01230023DBB22EE000BF54
:104ABC0060010024B5814E1B10000240280002400A
:104ACC004000024058000240700002408800024042
:104ADC00A0000240B800024010040240280402402A
:104AEC004004024058040240700402408804024012
:104AFC00A0040240B80402407B681B681B6803F0EA
:104B0C000803002B14BF01230023DBB2002B15D0AC
:104B1C007B681B681A687B681B6822F004021A60A9
:104B2C007B68DB6D03F01F0308229A403B6A9A6096
:104B3C007B685B6D43F001027B685A657B68DB6DBB
:104B4C0003F01F03BA6922FA03F303F00103002BED
:104B5C006ED07B681B68694A93424AD07B681B689D
:104B6C00674A934245D07B681B68664A934240D0A3
:104B7C007B681B68644A93423BD07B681B68634A22
:104B8C00934236D07B681B68614A934231D07B6874
:104B9C001B68604A93422CD07B681B685E4A934228
:104BAC0027D07B681B685D4A934222D07B681B68C8
:104BBC005B4A93421DD07B681B685A4A934218D0BB
:104BCC007B681B68584A934213D07B681B68574A12
:104BDC0093420ED07B681B68554A934209D07B6880
:104BEC001B68544A934204D07B681B68524A934218
:104BFC000AD17B681B685B6903F08003002B14BF30
:104C0C0001230023DBB203E07B681B681B680023D5
:104C1C00002B0DD07B68DB6D03F01F0301229A4043
:104C2C003B6A9A607B685B6D43F002027B685A6555
:104C3C007B68DB6D03F01F0304229A40BB691340B1
:104C4C00002B00F08F807B681B682C4A93424AD063
:104C5C007B681B682A4A934245D07B681B68294AAB
:104C6C00934240D07B681B68274A93423BD07B68B9
:104C7C001B68264A934236D07B681B68244A9342B1
:104C8C0031D07B681B68234A93422CD07B681B680D
:104C9C00214A934227D07B681B68204A934222D03A
:104CAC007B681B681E4A93421DD07B681B681D4A9B
:104CBC00934218D07B681B681B4A934213D07B68C5
:104CCC001B681A4A93420ED07B681B68184A9342A1
:104CDC0009D07B681B68174A934204D07B681B6819
:104CEC00154A93422AD17B681B681B6803F00203A8
:104CFC00002B14BF01230023DBB223E01000024081
:104D0C00280002404000024058000240700002405F
:104D1C0088000240A0000240B8000240100402408B
:104D2C00280402404004024058040240700402402F
:104D3C0088040240A0040240B80402407B681B684F
:104D4C001B680023002B0DD07B68DB6D03F01F0369
:104D5C0004229A403B6A9A607B685B6D43F00402C4
:104D6C007B685A657B68DB6D03F01F0310229A4049
:104D7C00BB691340002B00F0A6807B681B68854A3A
:104D8C0093424AD07B681B68834A934245D07B6828
:104D9C001B68824A934240D07B681B68804A9342CE
:104DAC003BD07B681B687F4A934236D07B681B687C
:104DBC007D4A934231D07B681B687C4A93422CD04D
:104DCC007B681B687A4A934227D07B681B68794AB8
:104DDC00934222D07B681B68774A93421DD07B6834
:104DEC001B68764A934218D07B681B68744A9342BE
:104DFC0013D07B681B68734A93420ED07B681B6888
:104E0C00714A934209D07B681B68704A934204D064
:104E1C007B681B686E4A93420AD17B681B681B68CF
:104E2C0003F00803002B14BF01230023DBB209E0BD
:104E3C007B681B681B6803F00403002B14BF012361
:104E4C000023DBB2002B3ED07B68DB6D03F01F032D
:104E5C0010229A403B6A9A607B681B681B6803F4BB
:104E6C008023002B18D07B681B681B6803F400237D
:104E7C00002B08D17B681B6C002B24D07B681B6C2F
:104E8C00786898471FE07B689B6C002B1BD07B6875
:104E9C009B6C7868984716E07B681B681B6803F46A
:104EAC008073002B07D17B681B681A687B681B68B2
:104EBC0022F008021A607B681B6C002B03D07B6805
:104ECC001B6C786898477B68DB6D03F01F0320220E
:104EDC009A40BB691340002B00F010817B681B6863
:104EEC002C4A93424AD07B681B682B4A934245D08C
:104EFC007B681B68294A934240D07B681B68284A10
:104F0C0093423BD07B681B68264A934236D07B6821
:104F1C001B68254A934231D07B681B68234A934215
:104F2C002CD07B681B68224A934227D07B681B6875
:104F3C00204A934222D07B681B681F4A93421DD0A3
:104F4C007B681B681D4A934218D07B681B681C4AFF
:104F5C00934213D07B681B681A4A93420ED07B682D
:104F6C001B68194A934209D07B681B68174A934205
:104F7C0004D07B681B68164A93422BD17B681B6854
:104F8C001B6803F01003002B14BF01230023DBB2BA
:104F9C002AE000BF100002402800024040000240FE
:104FAC00580002407000024088000240A0000240FD
:104FBC00B8000240100402402804024040040240A1
:104FCC00580402407004024088040240A0040240CD
:104FDC00B80402407B681B681B6803F00203002BBB
:104FEC0014BF01230023DBB2002B00F087807B6809
:104FFC00DB6D03F01F0320229A403B6A9A607B68AA
:10500C0093F83530DBB2042B39D17B681B681A68F6
:10501C007B681B6822F016021A607B681B685A6951
:10502C007B681B6822F080025A617B681B6C002B2A
:10503C0003D17B689B6C002B07D07B681B681A68BC
:10504C007B681B6822F008021A607B68DB6D03F03A
:10505C001F033F229A403B6A9A607B68012283F8C7
:10506C0035207B68002283F834207B681B6D002B75
:10507C0000F04A837B681B6D7868984744E37B6833
:10508C001B681B6803F48023002B18D07B681B68FB
:10509C001B6803F40023002B08D07B685B6C002B8F
:1050AC002CD07B685B6C7868984727E07B68DB6B5F
:1050BC00002B23D07B68DB6B786898471EE07B68FD
:1050CC001B681B6803F48073002B0FD17B681B6873
:1050DC001A687B681B6822F010021A607B68012238
:1050EC0083F835207B68002283F834207B68DB6BE7
:1050FC00002B03D07B68DB6B786898477B685B6D13
:10510C00002B00F006837B685B6D03F00103002B22
:10511C0000F088807B68042283F835207B681B684C
:10512C007A4A93424AD07B681B68794A934245D0AD
:10513C007B681B68774A934240D07B681B68764A31
:10514C0093423BD07B681B68744A934236D07B6891
:10515C001B68734A934231D07B681B68714A934237
:10516C002CD07B681B68704A934227D07B681B68E5
:10517C006E4A934222D07B681B686D4A93421DD0C5
:10518C007B681B686B4A934218D07B681B686A4A21
:10519C00934213D07B681B68684A93420ED07B689D
:1051AC001B68674A934209D07B681B68654A934227
:1051BC0004D07B681B68644A934208D17B681B68E7
:1051CC001A687B681B6822F001021A6007E07B6892
:1051DC001B681A687B681B6822F001021A60FB6866
:1051EC000133FB607A6A9A4207D37B681B681B68A1
:1051FC0003F00103002BF2D100E000BF7B681B68B9
:10520C001B6803F00103002B04D07B68032283F896
:10521C00352003E07B68012283F835207B6800226F
:10522C0083F834207B68DB6C002B00F072827B6887
:10523C00DB6C786898476CE27B681B68434A934246
:10524C0022D07B681B68424A93421DD07B681B6846
:10525C00404A934218D07B681B683F4A934213D054
:10526C007B681B683D4A93420ED07B681B683C4AA6
:10527C00934209D07B681B683A4A934204D07B68FE
:10528C001B68394A934201D1012300E00023002B13
:10529C0000F03F827B681B681B683B617B68DB6DA1
:1052AC0003F01F0304229A407B691340002B00F08B
:1052BC00CD803B6903F00403002B00F0C7807B68B2
:1052CC00DB6D03F01F0304229A40FB695A603B69B3
:1052DC0003F40043002B49D03B6903F48033002BCB
:1052EC0009D07B689B6C002B00F010827B689B6C58
:1052FC00786898470AE27B681B6C002B00F00682EA
:10530C007B681B6C7868984700E200BF1000024075
:10531C002800024040000240580002407000024049
:10532C0088000240A0000240B80002401004024075
:10533C002804024040040240580402407004024019
:10534C0088040240A0040240B804024008540258E9
:10535C001C540258305402584454025858540258A1
:10536C006C54025880540258945402583B6903F010
:10537C002003002B60D17B681B687F4A93424AD084
:10538C007B681B687D4A934245D07B681B687C4ACE
:10539C00934240D07B681B687A4A93423BD07B682F
:1053AC001B68794A934236D07B681B68774A9342D4
:1053BC0031D07B681B68764A93422CD07B681B6883
:1053CC00744A934227D07B681B68734A934222D05D
:1053DC007B681B68714A93421DD07B681B68704ABE
:1053EC00934218D07B681B686E4A934213D07B683B
:1053FC001B686D4A93420ED07B681B686B4A9342C4
:10540C0009D07B681B686A4A934204D07B681B688E
:10541C00684A934208D17B681B681A687B681B68D2
:10542C0022F008021A6007E07B681B681A687B6828
:10543C001B6822F004021A607B681B6C002B00F0C6
:10544C0065817B681B6C786898475FE17B68DB6DD6
:10545C0003F01F0302229A407B691340002B00F0DB
:10546C00C5803B6903F00203002B00F0BF807B6812
:10547C00DB6D03F01F0302229A40FB695A603B6903
:10548C0003F40043002B18D03B6903F48033002B4A
:10549C0009D17B685B6C002B00F03A817B685B6CFC
:1054AC007868984734E17B68DB6B002B00F0308127
:1054BC007B68DB6B786898472AE13B6903F0200333
:1054CC00002B40F089807B681B682B4A93424AD0A2
:1054DC007B681B68294A934245D07B681B68284A25
:1054EC00934240D07B681B68264A93423BD07B6832
:1054FC001B68254A934236D07B681B68234A93422B
:10550C0031D07B681B68224A93422CD07B681B6885
:10551C00204A934227D07B681B681F4A934222D0B3
:10552C007B681B681D4A93421DD07B681B681C4A14
:10553C00934218D07B681B681A4A934213D07B683D
:10554C001B68194A93420ED07B681B68174A93421A
:10555C0009D07B681B68164A934204D07B681B6891
:10556C00144A934228D17B681B681A687B681B68B5
:10557C0022F014021A6027E01000024028000240BA
:10558C004000024058000240700002408800024077
:10559C00A0000240B800024010040240280402405F
:1055AC004004024058040240700402408804024047
:1055BC00A0040240B80402407B681B681A687B6830
:1055CC001B6822F00A021A607B68012283F83520DE
:1055DC007B68002283F834207B68DB6B002B00F0A7
:1055EC0097807B68DB6B7868984791E07B68DB6D14
:1055FC0003F01F0308229A407B691340002B00F034
:10560C0088803B6903F00803002B00F082807B68E4
:10561C001B68414A93424AD07B681B683F4A9342BD
:10562C0045D07B681B683E4A934240D07B681B6820
:10563C003C4A93423BD07B681B683B4A934236D032
:10564C007B681B68394A934231D07B681B68384AA7
:10565C0093422CD07B681B68364A934227D07B68D8
:10566C001B68354A934222D07B681B68334A9342AD
:10567C001DD07B681B68324A934218D07B681B682C
:10568C00304A934213D07B681B682F4A93420ED04A
:10569C007B681B682D4A934209D07B681B682C4A97
:1056AC00934204D07B681B682A4A934208D17B68DA
:1056BC001B681A687B681B6822F01C021A6007E0E2
:1056CC007B681B681A687B681B6822F00E021A60E4
:1056DC007B68DB6D03F01F0301229A40FB695A6063
:1056EC007B6801225A657B68012283F835207B6830
:1056FC00002283F834207B68DB6C002B09D07B689C
:10570C00DB6C7868984704E000BF02E000BF00E063
:10571C0000BF2837BD4680BD100002402800024063
:10572C0040000240580002407000024088000240D5
:10573C00A0000240B80002401004024028040240BD
:10574C0040040240580402407004024088040240A5
:10575C00A0040240B804024080B483B000AF78606B
:10576C007B6893F83530DBB218460C37BD465DF8D4
:10577C00047B704780B483B000AF78607B685B6D4E
:10578C0018460C37BD465DF8047B704780B487B073
:10579C0000AFF860B9607A603B60FB689B6D7B6121
:1057AC00FB689B6D3B61FB681B687F4A934272D020
:1057BC00FB681B687D4A93426DD0FB681B687C4A72
:1057CC00934268D0FB681B687A4A934263D0FB68AB
:1057DC001B68794A93425ED0FB681B68774A9342F8
:1057EC0059D0FB681B68764A934254D0FB681B68FF
:1057FC00744A93424FD0FB681B68734A93424AD059
:10580C00FB681B68714A934245D0FB681B68704A61
:10581C00934240D0FB681B686E4A93423BD0FB68B6
:10582C001B686D4A934236D0FB681B686B4A9342E7
:10583C0031D0FB681B686A4A93422CD0FB681B680A
:10584C00684A934227D0FB681B68674A934222D070
:10585C00FB681B68654A93421DD0FB681B68644A51
:10586C00934218D0FB681B68624A934213D0FB68C2
:10587C001B68614A93420ED0FB681B685F4A9342D7
:10588C0009D0FB681B685E4A934204D0FB681B6816
:10589C005C4A934201D1012300E00023002B0DD080
:1058AC00FB685B6EFA68926E5A60FB68DB6E002BCD
:1058BC0004D0FB681B6FFA68526F5A60FB681B6858
:1058CC00394A93424AD0FB681B68384A934245D008
:1058DC00FB681B68364A934240D0FB681B68354A0C
:1058EC0093423BD0FB681B68334A934236D0FB682B
:1058FC001B68324A934231D0FB681B68304A934292
:10590C002CD0FB681B682F4A934227D0FB681B687E
:10591C002D4A934222D0FB681B682C4A93421DD01F
:10592C00FB681B682A4A934218D0FB681B68294AFB
:10593C00934213D0FB681B68274A93420ED0FB6836
:10594C001B68264A934209D0FB681B68244A934281
:10595C0004D0FB681B68234A934201D1012300E069
:10596C000023002B59D0FB68DB6D03F01F033F2293
:10597C009A407B699A60FB681B681A68FB681B6815
:10598C0022F480221A60FB681B683A685A60FB6834
:10599C009B68402B38D1FB681B687A689A60FB685F
:1059AC001B68BA68DA6086E01000024028000240EA
:1059BC004000024058000240700002408800024043
:1059CC00A0000240B800024010040240280402402B
:1059DC004004024058040240700402408804024013
:1059EC00A0040240B8040240085402581C54025847
:1059FC003054025844540258585402586C540258AB
:105A0C008054025894540258FB681B68BA689A6018
:105A1C00FB681B687A68DA604DE0FB681B68294AF2
:105A2C00934222D0FB681B68274A93421DD0FB6827
:105A3C001B68264A934218D0FB681B68244A934281
:105A4C0013D0FB681B68234A93420ED0FB681B687B
:105A5C00214A934209D0FB681B68204A934204D028
:105A6C00FB681B681E4A934201D1012300E000230E
:105A7C00002B20D0FB68DB6D03F01F0301229A4042
:105A8C003B695A60FB681B683A685A60FB689B6804
:105A9C00402B08D1FB681B687A689A60FB681B680E
:105AAC00BA68DA6007E0FB681B68BA689A60FB6842
:105ABC001B687A68DA6000BF1C37BD465DF8047B52
:105ACC00704700BF085402581C54025830540258F6
