:020000040800F2
:10000000000005241154000839510008415100082E
:1000100049510008515100085951000800000000E2
:100020000000000000000000000000006151000816
:100030006F510008000000007D5100088B5100083E
:1000400065540008655400086554000865540008AC
:10005000655400086554000865540008655400089C
:10006000655400086554000897510008A551000820
:10007000B9510008CD510008E1510008F5510008C0
:10008000095200081D520008655400086554000814
:100090006554000865540008655400083152000892
:1000A000655400086554000865540008655400084C
:1000B0006554000865540008655400084D52000856
:1000C0006152000865540008655400086554000832
:1000D000655400087552000865540008655400080E
:1000E00065540008655400080000000065540008CD
:1000F00065540008655400086554000889520008DA
:1001000065540008655400086554000865540008EB
:100110009D520008B152000865540008655400085B
:1001200065540008655400086554000865540008CB
:1001300065540008655400086554000865540008BB
:1001400000000000000000000000000000000000AF
:10015000655400086554000865540008655400089B
:10016000655400086554000865540008655400088B
:1001700065540008C55200086554000800000000DE
:10018000655400086554000865540008655400086B
:10019000655400086554000865540008655400085B
:1001A000655400086554000865540008000000000C
:1001B000655400086554000865540008655400083B
:1001C00065540008655400080000000000000000AD
:1001D000000000000000000065540008000000005E
:1001E000000000000000000000000000000000000F
:1001F000000000000000000065540008655400087D
:1002000065540008655400080000000065540008AB
:1002100065540008655400086554000865540008DA
:10022000655400080000000065540008000000004C
:10023000655400086554000800000000655400087B
:1002400065540008655400086554000865540008AA
:10025000655400086554000865540008655400089A
:10026000655400086554000865540008655400088A
:10027000655400086554000865540008000000003B
:10028000655400086554000865540008655400086A
:1002900000000000655400086554000800000000DC
:1002A000000000006554000865540008655400080B
:1002B000655400086554000865540008655400083A
:0C02C000655400086554000865540008EF
:1002CC0010B5054C237833B9044B13B10448AFF384
:1002DC0000800123237010BDE80200240000000000
:1002EC003C60010808B5034B1BB103490348AFF34D
:1002FC00008008BD00000000EC0200243C600108F6
:10030C0053B94AB9002908BF00281CBF4FF0FF3170
:10031C004FF0FF3000F088B9ADF1080C6DE904CE58
:10032C0000F006F8DDF804E0DDE9022304B07047C4
:10033C002DE9F047089D8E4604468846002B4AD18D
:10034C008A42174662D9B2FA82F64EB1C6F1200340
:10035C0001FA06F820FA03F3B74043EA0808B44060
:10036C004FEA174E1FFA87FCB8FBFEF1230C0EFB6D
:10037C00118843EA084301FB0CF29A4209D9FB1895
:10038C0001F1FF3080F0EA809A4240F2E7800239B6
:10039C003B449A1AA3B2B2FBFEF00EFB102243EAC6
:1003AC00024300FB0CFC9C4509D9FB1800F1FF3201
:1003BC0080F0D6809C4540F2D3803B44023840EA22
:1003CC000140A3EB0C0300211DB1F3400022C5E951
:1003DC000032BDE8F0878B4205D90DB1C5E90001AB
:1003EC0000210846F5E7B3FA83F1002946D173459D
:1003FC0002D3824200F20581841A6EEB03020120C3
:10040C009046002DE5D0C5E90048E2E7002A00F04F
:10041C009080B2FA82F6002E40F0A4808A1A030C67
:10042C004FEA174E80B2BCB20121B2FBFEFC0EFBB0
:10043C001C2243EA024304FB0CF29A4207D9FB1834
:10044C000CF1FF3802D29A4200F2E080C4469B1AAB
:10045C00B3FBFEF20EFB123340EA034302FB04F43F
:10046C009C4207D9FB1802F1FF3002D29C4200F2E9
:10047C00CA8002461B1B42EA0C40A5E7C1F12006CC
:10048C008B4022FA06F71F430EFA01F420FA06F30A
:10049C002EFA06FE4FEA1749234300FA01F81FFA19
:1004AC0087FCBEFBF9F01C0C09FB10EE44EA0E4471
:1004BC0000FB0CFEA64502FA01F209D93C1900F129
:1004CC00FF3A80F09C80A64540F2998002383C446B
:1004DC00A4EB0E041FFA83FEB4FBF9F309FB1344DF
:1004EC004EEA044403FB0CFCA44508D93C1903F167
:1004FC00FF3E80F08280A4457FD9023B3C4443EA16
:10050C000040A4EB0C04A0FB02EC64457346E146EE
:10051C0062D35FD05DB1B8EB030264EB090404FA5B
:10052C0006F622FA01F31E43CC40C5E90064002113
:10053C004FE7B1FBF2FC010C41EA0E4180B240EAFC
:10054C0001423B4638463C46B846BE462026B1FBE7
:10055C00F7F1A2EB080241EA0C4166E7014618E705
:10056C0010462CE7C6F120022EFA02F3B740B14038
:10057C0020FA02F24FEA174E0A43B3FBFEF8BCB264
:10058C000EFB1833110C41EA034108FB04F9B0408F
:10059C0089454FEA104380B23ED9791808F1FF3CE7
:1005AC0001D289451FD8A1EB0901B1FBFEF909FB6A
:1005BC0004F80EFB191192B242EA0142424529D2CB
:1005CC00BA1809F1FF31C4D24245C2D2A9F10201D5
:1005DC003A44BEE7F0459DD2BEEB02036CEB070C30
:1005EC000138E14696E7A7EB09094944A8F1020C4A
:1005FC00B1FBFEF909FB04F8DBE773467FE75046D5
:10060C0066E70846FDE63B44023A33E7ACF1020CE0
:10061C003B441CE749469CE7A1EB0901C446B1FBEE
:10062C00FEF909FB04F8C4E7704700BF80B487B03B
:10063C0000AF786039604FF6FF73FB8200233B619B
:10064C0027E07A683B6913441B781BB21B021AB271
:10065C00B7F9163053401BB2FB820023FB7312E038
:10066C00B7F91630002B07DAFB8A5B009AB241F21D
:10067C00210353409BB202E0FB8A5B009BB2FB82DE
:10068C00FB7B0133FB73FB7B072BE9D93B69013304
:10069C003B613A693B689A42D3D3FB8A18461C37B4
:1006AC00BD465DF8047B704780B483B000AF7860C2
:1006BC007A68044B13449B0118460C37BD465DF811
:1006CC00047B70470038200080B584B000AF7860A0
:1006DC007B681B680B4A934201D000230DE0242158
:1006EC007868FFF7A3FF0346FB817B689B8CFA8934
:1006FC009A420CBF01230023DBB218461037BD46CB
:10070C0080BD00BF3147464380B586B000AF402264
:10071C000021374815F052FC354B4FF400621A603B
:10072C0000237B615AE07869FFF7BEFF38613B69B3
:10073C001B68B3F1FF3F03D12D4A7B69136052E074
:10074C003869FFF7C1FF034683F00103DBB2002BCE
:10075C0040D13B695A68264B5B689A4203D93B6986
:10076C005B68234A53603B691B7A012B0AD13B69B6
:10077C000933182219461F4815F04CFC1C4B01225A
:10078C001A7228E03B691B7A022B24D13B6903F1D6
:10079C0009013B1D0C22184615F03CFC3B79412B02
:1007AC000AD1134B24333A1D07CA83E80700104BB8
:1007BC00012283F822200EE03B79422B0BD10C4B0B
:1007CC0034333A1D07CA83E80700094B012283F82A
:1007DC00302000E000BF7B6901337B617B69B3F59E
:1007EC00006FA0D300BF00BF1837BD4680BD00BF4F
:1007FC00040300240E030024F0B5A9B000AF034697
:10080C003960FB711346BB7107F1A003983B1F3392
:10081C005B095E01614B1B68B3F5006F09D300F0F7
:10082C00C5F8034683F00103DBB2002B01D0002393
:10083C00B0E007F16C032822FF21184615F0BEFB2F
:10084C00574BFB66554B5B680133544A5360534B13
:10085C005B683B67FB7987F8743007F16C030933ED
:10086C001B220021184615F0A9FBBA7907F16C037D
:10087C0009333968184615F0CDFB07F16C032421B8
:10088C001846FFF7D3FE0346A7F890304022FF210D
:10089C00304615F093FB354607F16C040FCC0FC5B1
:1008AC000FCC0FC594E8030085E803003B4B1A6896
:1008BC003C4B13449B01C7F8943007F0CFFE002348
:1008CC0087F89F300023C7F8983019E0D7F8983094
:1008DC005A01D7F89430D118D7F898305B013344CB
:1008EC001A46012007F04AFE034687F89F3097F816
:1008FC009F30002B09D1D7F898300133C7F89830C6
:10090C00D7F89830012BE1D900E000BF07F0C8FE02
:10091C0097F89F30002B01D000233BE01F4B1B6846
:10092C0001331E4A1360FB79012B09D1BB791A469E
:10093C0039681D4815F06EFB184B01221A7228E01D
:10094C00FB79022B25D1BA7907F160033968184677
:10095C0015F060FB97F86030412B0BD10F4B243313
:10096C0007F1600207CA83E807000C4B012283F8E9
:10097C0022200EE097F86030422B0AD1074B34331B
:10098C0007F1600207CA83E80700044B012283F8D1
:10099C00302001231846A437BD46F0BD04030024C3
:1009AC0031474643003820000E030024B0B594B004
:1009BC0000AF514B1B7A87F84F304F4B07F1340483
:1009CC0003F10A0528686968AA68EB680FC42869EE
:1009DC00696903C4484B93F8223087F84E30464A75
:1009EC0007F12803243207CA83E80700424B93F827
:1009FC00303087F84D30404A07F11C03343207CAB7
:100A0C0083E8070007F1080300221A605A609A6015
:100A1C00DA601A610023BB600123FB6007233B6192
:100A2C0001237B612023BB614FF0FF337B6007F018
:100A3C0015FE3A1D07F108031146184607F09EFEF5
:100A4C00034687F84C3007F02BFE97F84C30002B00
:100A5C0003D17B68B3F1FF3F01D0002347E0264B65
:100A6C0000221A60244B00221A72234B002283F8B6
:100A7C002220214B002283F8302097F84F30002B96
:100A8C000ED007F13403182219460120FFF7B4FEEB
:100A9C00034683F00103DBB2002B01D0002326E0D8
:100AAC0097F84E30002B0ED007F128030C22194674
:100ABC000220FFF7A1FE034683F00103DBB2002BFB
:100ACC0001D0002313E097F84D30002B0ED007F126
:100ADC001C030C2219460220FFF78EFE034683F0FE
:100AEC000103DBB2002B01D0002300E001231846E8
:100AFC005037BD46B0BD00BF0403002490B482B093
:100B0C0000AF03463960FB71FB79412B13D1184BB5
:100B1C0093F8223083F00103DBB2002B01D00023C9
:100B2C0021E03A68124B1446243393E8070084E81A
:100B3C000700012317E0FB79422B13D10C4B93F8E0
:100B4C00303083F00103DBB2002B01D000230AE02C
:100B5C003A68074B1446343393E8070084E80700DF
:100B6C00012300E0002318460837BD4690BC7047AF
:100B7C000403002480B586B000AF03463960FB71D6
:100B8C001346BB71FB79412B04D0FB79422B01D06E
:100B9C0000230DE0FB793B733B683B61BB793B75F4
:100BAC0007F10C030C2219460220FFF725FE034621
:100BBC0018461837BD4680BDB0B483B000AF78601E
:100BCC000E4B1B7A83F00103DBB2002B01D0002308
:100BDC000FE07A68094B0A33186859689D68DC681D
:100BEC00106051609560D460186959691061516149
:100BFC00012318460C37BD46B0BC704704030024D3
:100C0C0080B582B000AF7860182279680120FFF7B8
:100C1C00F3FD034618460837BD4680BD80B582B04B
:100C2C0000AFFF23FB71FB1D012219460320FFF7C8
:100C3C00E3FD034683F00103DBB2002B01D000235C
:100C4C0001E0034B5B6818460837BD4680BD00BF0A
:100C5C000403002480B483B000AF786039607B68F3
:100C6C001B6B3A68D31A40F2F312934294BF0123E0
:100C7C000023DBB218460C37BD465DF8047B704789
:100C8C0080B485B000AF786039604FF6FF73FB819C
:100C9C0023E07B685A1C7A601B781B021AB2B7F9E6
:100CAC000E3053401BB2FB8100237B7312E0B7F96B
:100CBC000E30002B07DAFB895B009AB241F221035C
:100CCC0053409BB202E0FB895B009BB2FB817B7BB8
:100CDC0001337B737B7B072BE9D93B685A1E3A6047
:100CEC00002BD6D1FB8918461437BD465DF8047B22
:100CFC007047F0B486B000AFF860C7E9002300235A
:100D0C00FB751DE097F82820FB7DD31A013BD90019
:100D1C00D7E90023C1F12006A1F1200022FA01F449
:100D2C0003FA06F6344323FA00F0044323FA01F5E0
:100D3C00FB7DFA681344E2B21A70FB7D0133FB753C
:100D4C00FA7D97F828309A42DCD300BF00BF1837E1
:100D5C00BD46F0BC704780B485B000AF78607B684E
:100D6C001B781A067B6801331B781B041A437B68BB
:100D7C0002331B781B0213437A6803321278134335
:100D8C00FB60FB6807EE903AB0EE670A1437BD467D
:100D9C005DF8047B704780B483B000AF78607B68EB
:100DAC001B781A067B6801331B781B041A437B687B
:100DBC0002331B781B0213437A68033212781343F5
:100DCC0018460C37BD465DF8047B704780B483B081
:100DDC0000AF78607B681B781BB21B021AB27B6871
:100DEC0001331B781BB213431BB29BB218460C3752
:100DFC00BD465DF8047B704780B582B000AF002320
:100E0C00FB7110212B4807F03FFF0346002B03D149
:100E1C00FB7943F00103FB712021264807F034FFD6
:100E2C000346002B03D1FB7943F00203FB71012134
:100E3C00214807F029FF0346002B03D1FB7943F02F
:100E4C000403FB7102211C4807F01EFF0346002B14
:100E5C0003D1FB7943F00803FB71184B1B7819463F
:100E6C00174AFB795354154B1B78591C154BA3FB94
:100E7C0001235A0813465B001344CA1AD2B20F4B13
:100E8C001A700F4B5A780E4B19780D4B9B780B43FD
:100E9C00DBB21340DAB20A4B1978094B9B780B4042
:100EAC00DBB21343DAB2084B1A7000BF0837BD46E9
:100EBC0080BD00BF0008025800040258200700241F
:100ECC0024070024ABAAAAAACC0300242DE9B04F16
:100EDC008EB002AF7861744B1B78DBB21A461346A6
:100EEC00DB009B1ADB00714A1344BB62002387F8BA
:100EFC002F30002387F82E307FE097F82E301846DD
:100F0C0002F06CFA386297F82E2013465B001344FB
:100F1C009B000433BA6A1344FB613B6A002B0CD16F
:100F2C000C220021F86915F049F8614BD3F8803098
:100F3C0001335F4AC2F880305AE0FB6903F10A01C1
:100F4C003B6A1B8A9BB2002298469146022300936F
:100F5C0042464B460846FFF7CCFE3B6A1B6B7A6950
:100F6C00D31A952B0CD90A220021F86915F026F812
:100F7C004F4BD3F8803001334D4AC2F8803037E004
:100F8C0097F82E30012202FA03F3DAB297F82F30D9
:100F9C00134387F82F303B6ADB6B1A4600239246CB
:100FAC009B460423009352465B46F869FFF7A1FE6B
:100FBC00FB69191D3B6A9B6B0022BB60FA60042322
:100FCC000093D7E902230846FFF793FEFB6903F170
:100FDC0008013B6AB3F944309BB29BB200223B60E0
:100FEC007A6002230093D7E900230846FFF781FEBD
:100FFC0097F82E30013387F82E3097F82E30032BCC
:10100C007FF67BAFBB6AAB221A70BB6A0133CD2271
:10101C001A70BB6A023301221A7097F82F3003F052
:10102C000F03D9B2234B1B78DBB21B01DAB2BB6ABC
:10103C0003330A43D2B21A70BB6A02333221184608
:10104C00FFF71EFE0346FB84BB6A03F13401FB8CE5
:10105C0000221C4615460223009322462B460846C6
:10106C00FFF747FEBB6A3633E1221A70BB6A37338F
:10107C00E2221A700E4B1B6801330D4A13600A4BA7
:10108C001B78DAB20C4B1A70074B1B78DBB283F06F
:10109C000103DAB2044B1A7000F05CF800BF303771
:1010AC00BD46BDE8B08F00BF4403002400000030F3
:1010BC0048030024CC0300240000002480B582B037
:1010CC0000AF78607B689B7A002B07D07B685868F0
:1010DC007B681B890022194607F0EEFD7B68002215
:1010EC001A7300BF0837BD4680BD80B584B000AF11
:1010FC00786039607B689B7A002B11D07B685868CC
:10110C007B681B890122194607F0D6FD0023FB6082
:10111C0003E000BFFB680133FB60FB68C72BF8DD05
:10112C007B6801221A7304F01FFA02467B681A616D
:10113C007B681B683822396818460EF0FBFB0346A7
:10114C00002B02D07868FFF7B9FF00BF1037BD46FF
:10115C0080BD000080B584B000AF2A4B1B78DBB299
:10116C001A461346DB009B1ADB00274A1344BB606C
:10117C000023FB733EE0FA7B13469B0013449B0059
:10118C00224A13447B607B681B7BDBB2002B0AD0AA
:10119C00FB7B1F491A1D51F8222001321C490433D4
:1011AC0041F8232023E07B68DB7A002B11D0082147
:1011BC00184807F069FD0346012B0AD1FB7B144943
:1011CC001A1D51F8222001321149043341F8232011
:1011DC000DE0B9687868FFF788FFFA7B0C4993003B
:1011EC000B445B68591C0A48930003445960FB7B11
:1011FC000133FB73FB7B022BBDD900BF00BF103743
:10120C00BD4680BD00000024000000300400002416
:10121C00480300240000025880B584B000AF786009
:10122C000023FB7318E0FA7B0E4913469B00134412
:10123C009B000B441B687A689A420AD1FA7B1346CE
:10124C009B0013449B00074A13441846FFF736FFD4
:10125C0005E0FB7B0133FB73FB7B022BE3D91037DF
:10126C00BD4680BD0400002480B584B000AF0346A9
:10127C00FB71FA7913469B0013449B00174A1344E5
:10128C00FB60FB79164A002122F81310FB79154AF2
:10129C00002122F81310FB681B681B6808221A62D5
:1012AC00FB681868FB791B020F4A13444FF48072D9
:1012BC0019460EF0BFFB0346002B0AD0FB790B49F5
:1012CC0003F11C0251F82220013208491C3341F869
:1012DC00232000BF1037BD4680BD00BF0400002492
:1012EC00D403002400070024A0000030480300248D
:1012FC0080B584B000AF78600023FB735AE0FA7BB2
:10130C00304913469B0013449B000B441B687A68BE
:10131C009A424BD17B68D3F89030BB60BB6803F02A
:10132C000F03002B0AD0FB7B274903F11C0251F859
:10133C002220013224491C3341F82320BB6803F0DE
:10134C001003002B24D0FA7B1E4913469B00134438
:10135C009B000B440C331B78DBB2002B18D0FA7BB0
:10136C001949931D9B000B445B68591C1648931D2F
:10137C009B000344596078680EF0A8FBFA7B134677
:10138C009B0013449B000F4A13441846FFF796FE2C
:10139C007B680022C3F890207B68D3F88C30222B1A
:1013AC000CD0FB7B1846FFF75FFF07E000BFFB7B11
:1013BC000133FB73FB7B022BA1D900E000BF10377C
:1013CC00BD4680BD040000244803002480B582B0D3
:1013DC0000AF0023FB7135E0FB791E4A002122F897
:1013EC001310FB791C4A002122F81310FB791B0205
:1013FC001A4A13444FF480720021184614F0DEFD93
:10140C00FA79174913469B0013449B000B44186848
:10141C00FB791B02114A13444FF4807219460EF0EB
:10142C0009FB0346002B0AD0FB790E4903F11C0281
:10143C0051F8222001320B491C3341F82320FB794F
:10144C000133FB71FB79022BC6D900BF00BF0837F3
:10145C00BD4680BDD403002400070024A00000304A
:10146C00040000244803002480B483B000AF03467A
:10147C00FB71FB79883B0B2B2BD801A252F823F084
:10148C00BD140008C1140008DF140008C5140008BE
:10149C00C9140008DF140008DF140008DF1400086A
:1014AC00CD140008D1140008D7140008DB14000870
:1014BC0008230FE014230DE008230BE0082309E0B8
:1014CC00142307E04FF4867304E0082302E008239A
:1014DC0000E0002318460C37BD465DF8047B7047CE
:1014EC0080B483B000AF0346FB71FA798C49134684
:1014FC009B0013449B000B441B68D3F88030002BDB
:10150C0001D1002306E1FA79854913469B00134467
:10151C009B000B441B68D3F880301B68814A9342B4
:10152C0000F0D780FA797E4913469B0013449B0048
:10153C000B441B68D3F880301B687B4A934200F045
:10154C00C880FA79764913469B0013449B000B44E0
:10155C001B68D3F880301B68744A934200F0B98042
:10156C00FA796F4913469B0013449B000B441B688C
:10157C00D3F880301B686E4A934200F0AA80FA7947
:10158C00674913469B0013449B000B441B68D3F81C
:10159C0080301B68674A934200F09B80FA7960495F
:1015AC0013469B0013449B000B441B68D3F88030FC
:1015BC001B68614A934200F08C80FA7958491346B3
:1015CC009B0013449B000B441B68D3F880301B68B2
:1015DC005A4A93427DD0FA79514913469B001344E1
:1015EC009B000B441B68D3F880301B68544A934211
:1015FC006FD0FA794A4913469B0013449B000B4465
:10160C001B68D3F880301B684E4A934261D0FA793C
:10161C00434913469B0013449B000B441B68D3F8AF
:10162C0080301B68484A934253D0FA793C491346A0
:10163C009B0013449B000B441B68D3F880301B6841
:10164C00424A934245D0FA79354913469B001344DC
:10165C009B000B441B68D3F880301B683C4A9342B8
:10166C0037D0FA792E4913469B0013449B000B4448
:10167C001B68D3F880301B68364A934229D0FA791C
:10168C00274913469B0013449B000B441B68D3F85B
:10169C0080301B68304A93421BD0FA79204913469C
:1016AC009B0013449B000B441B68D3F880301B68D1
:1016BC002A4A93420DD0FA79194913469B001344D8
:1016CC009B000B441B68D3F880301B68244A934260
:1016DC0010D1FA79124913469B0013449B000B441A
:1016EC001B68D3F880301B685B689BB2C3F58073B2
:1016FC009BB20FE0FA790A4913469B0013449B00F6
:10170C000B441B68D3F880301B685B689BB2C3F535
:10171C0080739BB218460C37BD465DF8047B70474E
:10172C000400002410000240280002404000024047
:10173C00580002407000024088000240A0000240A5
:10174C00B800024010040240280402404004024049
:10175C00580402407004024088040240A004024075
:10176C00B804024080B58EB000AF03463960FB71FF
:10177C001346BB80BB88043BFB86FB8E3A68134444
:10178C001B781BB21B021AB2FB8E013339680B4457
:10179C001B781BB213431BB2BB863B689A1CFB8E97
:1017AC00023B19461046FFF76BFA03467B86BA8E4E
:1017BC007B8E9A420ED0FA798B4902F112039B0070
:1017CC000B445B68591C884802F112039B000344CC
:1017DC00596005E1FB79844903F1100251F822208C
:1017EC0001328149103341F8232003F0BDFE03463A
:1017FC007E4A13603B6802331B78883B0B2B00F24C
:10180C00E28001A252F823F045180008771800086E
:10181C00D3190008EF180008D1180008D3190008D4
:10182C00D3190008D3190008F51800083D19000851
:10183C0085190008A91900083B6803331B78002B95
:10184C0014BF01230023DBB2184603F0A7F80346AC
:10185C0083F00103DBB2002B00F0C180F879002388
:10186C000422FF2100F0CEFBB9E0614AFB795370F2
:10187C003B6803331A785E4B9A705D4B0022DA702A
:10188C003B6804331846FFF766FAF0EE407A584B83
:10189C00C3ED017A3B6808331846FFF75CFAF0EEAB
:1018AC00407A534BC3ED027A3B680C331846FFF772
:1018BC0052FAF0EE407A4E4BC3ED037A4C4B0122B8
:1018CC001A708DE04A4AFB7953703B6803331A78DF
:1018DC00474B9A70464B0122DA70454B01221A7025
:1018EC007EE003F07BF87BE000237B613B680433F4
:1018FC001846FFF750FA78623B6808331846FFF732
:10190C004AFA38623B680C331846FFF744FAF86120
:10191C0007F11403FA69396A786A00F069FE034624
:10192C00FB76F8797B69FA7E902100F0DFFB57E0BB
:10193C0000233B613B6804331846FFF747FA034624
:10194C00FB853B6806331846FFF740FA0346BB8518
:10195C003B6803F1080207F11003B98DF88D00F014
:10196C0097FE034687F82B30F8793B6997F82B20C4
:10197C00912100F0BBFB33E00023FB6007F10C036B
:10198C00184600F017FF034687F83130F879FB68EA
:10199C0097F83120922100F0A9FB21E000F0DEFF46
:1019AC000346002B08D0F87900230022932100F085
:1019BC009DFB00F0E3FF13E0F8790023062293214E
:1019CC0000F094FB0CE0FB79074903F1160251F887
:1019DC00222001320449163341F8232000E000BFD5
:1019EC003837BD4680BD00BF48030024D003002417
:1019FC001007002490B585B000AF03460A46FB7172
:101A0C001346BB71FB79714A32F81330FB81FB89A9
:101A1C00022B36D0022B65DC002B02D0012B13D00D
:101A2C0060E0BB79AB2B40F0C980FB79684A4FF47E
:101A3C00867101FB03F31344BA791A70FB79634A7C
:101A4C00012122F81310B9E0BB79CD2B0FD1FB7912
:101A5C005F4A4FF4867101FB03F313440133BA79E7
:101A6C001A70FB79594A022122F81310A8E0BB79AD
:101A7C00AB2B00F0A580FB79544A002122F81310FF
:101A8C009EE0FC79BB791846FFF7EEFC03461A463C
:101A9C00504B23F81420FB794E4A32F81330002BAC
:101AAC0010D1FB794C4903F1160251F82220013276
:101ABC004949163341F82320FB79444A002122F886
:101ACC00131080E0FB79424A4FF4867101FB03F35B
:101ADC0013440233BA791A70FB793C4A032122F879
:101AEC00131070E0FB89B3F5867F10D3FB79374A6E
:101AFC00002122F81310FB79374903F1160251F833
:101B0C00222001323449163341F823205BE0FA7964
:101B1C00FB892F494FF4867000FB02F20A441344F0
:101B2C00BA791A70FB79FA89013291B2274A22F8F4
:101B3C00131000BFFB79274A32F81330BB81FB79B5
:101B4C00224A32F81330BA899A423BD8FB791F4AA1
:101B5C00002122F81310FA79BB89023B1C494FF47F
:101B6C00867000FB02F20A4413441B78E12B19D156
:101B7C00FA79BB89013B16494FF4867000FB02F2DF
:101B8C000A4413441B78E22B0CD1FB794FF4867278
:101B9C0002FB03F30E4A9918BA89FB791846FFF732
:101BAC00E1FD10E0FB790C4903F1160251F82220FB
:101BBC0001320949163341F8232004E000BF02E04A
:101BCC0000BF00E000BF1437BD4690BD00070024E5
:101BDC00DC030024080700244803002480B582B0ED
:101BEC0000AF0023FB714DE0FB791846FFF778FC42
:101BFC0003467B80FB79274A32F81330BB807A8806
:101C0C00BB88D31A9BB2DBB23B803B88F82B2DD917
:101C1C00FA79214902F118039B000B445B68591CAB
:101C2C001D4802F118039B00034459601EE0FA7929
:101C3C00BB881A4912020A4413441A78FB791146DC
:101C4C001846FFF7D7FEBB8801339BB2DBB2BB80D3
:101C5C00FA79114902F10C039B000B445B68591C87
:101C6C000D4802F10C039B0003445960BA887B8831
:101C7C009A42DCD1FB790749BA8821F81320FB7909
:101C8C000133FB71FB79022BAED900BF00BF0837C3
:101C9C00BD4680BDD403002448030024A0000030BE
:101CAC0080B582B000AF70220021234814F086F971
:101CBC0084220021214814F081F9214B00221A7052
:101CCC00204B01221A700023FB7111E0FB7918469E
:101CDC0001F084FB38603B68002B06D003F044FC19
:101CEC000346A3F196023B681A63FB790133FB713F
:101CFC00FB79032BEAD900224FF40071124806F04D
:101D0C00DBFF00224FF48061104806F0D5FF002263
:101D1C0040210D4806F0D0FF002204210B4806F0AC
:101D2C00CBFF002204210A4806F0C6FFFFF74EFB4A
:101D3C0000BF0837BD4680BD0000003048030024BA
:101D4C004403002400000024000802580004025838
:101D5C000000025880B500AF01F092F90346032B46
:101D6C0004D1034BDB6F0133014AD36700BF80BD45
:101D7C004803002480B582B000AF786001F0F2F91E
:101D8C000346022B06D1002001F0F8F97868FFF722
:101D9C009DF800E000BF0837BD4680BD80B584B01B
:101DAC0000AF78600023FB7334E0FA7B13469B0092
:101DBC0013449B001B4A1344BB60BB681B7BDBB208
:101DCC0083F00103DBB2002B1ED1BB681B697A6860
:101DDC00D31A312B1AD9FB7B134903F10A0251F8A0
:101DEC002220013210490A3341F82320BB681B68BA
:101DFC0018460DF06BFEBB681B680022C3F89020E0
:101E0C00B868FFF75BF902E000BF00E000BFFB7BA6
:101E1C000133FB73FB7B022BC7D900BF00BF10370C
:101E2C00BD4680BD040000244803002480B483B068
:101E3C0000AF0023FB7110E0FA79144913469B00A4
:101E4C0013449B000B440C331B78DBB2002B01D0EA
:101E5C00002315E0FB790133FB71FB79022BEBD9E5
:101E6C000B4B1B78DBB21B010A4A13443B60084B3B
:101E7C001B78DBB283F00103DAB2054B1A703B68B6
:101E8C0018460C37BD465DF8047B704704000024EF
:101E9C004503002480000030F0B585B002AF7860B7
:101EAC007B6803F10C067B6802330A211846FEF7A7
:101EBC00E7FE03469BB200221C4615460223009304
:101ECC0022462B463046FEF714FF7B680E33E12288
:101EDC001A707B680F33E2221A7000BF0C37BD46B4
:101EEC00F0BD000080B588B000AFF8600B467A609A
:101EFC00FB720023FB770023BB7774E07B68002B1D
:101F0C0004DB7B68DBB2BA7F9A4268D1BA7F134696
:101F1C009B0013449B00384A1344BB61BB691B7B79
:101F2C00DBB2002B0AD0BB7F34491A1D51F822209A
:101F3C0001323249043341F8232051E0BB69DB7A8A
:101F4C00002B11D008212E4806F09EFE0346012BD3
:101F5C000AD1BB7F29491A1D51F822200132274989
:101F6C00043341F823203BE0BB699B7A002B11D052
:101F7C00BB695868BB691B890122194606F09CFE97
:101F8C0000237B6103E000BF7B6901337B617B69CC
:101F9C00C72BF8DDBB6901221A7303F0E5FA024680
:101FAC00BB691A61BB691B68FA7A92B2F968184668
:101FBC000DF0C0FC0346002B03D0B869FFF77EF888
:101FCC000EE0BA7F0D4993000B445B68591C0B481B
:101FDC00930003445960FB7F0133FB7700E000BFA3
:101FEC00BB7F0133BB77BB7F022B87D9FB7F1846A6
:101FFC002037BD4680BD00BF0400002448030024E8
:10200C00000002582DE9B04F86B002AF3B6003468A
:10201C00FB710B46BB7113467B71FFF707FFF86032
:10202C00FB68002B01D100235BE010220021F86833
:10203C0013F0C4FFFB68AB221A70FB680133CD228E
:10204C001A70FB6802338A221A70FB680333BA7960
:10205C001A70FB6804337A791A703B68002B31D004
:10206C00FB68991D3B68B3F848309BB200229A4636
:10207C0093460223009352465B460846FEF739FE10
:10208C00FB6803F108013B68B3F84C309BB20022AB
:10209C00984691460223009342464B460846FEF76B
:1020AC0028FEFB6803F10A013B68B3F84E309BB283
:1020BC0000221C4615460223009322462B46084656
:1020CC00FEF717FEF868FFF7E7FEFB791A461021BA
:1020DC00F868FFF707FF0346002B14BF012300230A
:1020EC00DBB218461037BD46BDE8B08FB0B588B02E
:1020FC0002AFF8607B600B46FB721346BB72FFF7B6
:10210C0095FE78617B69002B01D1002336E010220B
:10211C000021786913F052FF7B69AB221A707B693E
:10212C000133CD221A707B69023394221A707B69B9
:10213C00033301221A707B690433FA7A1A707B69B3
:10214C000533BA7A1A707B69991D7B6800221C468C
:10215C0015460423009322462B460846FEF7C9FD7C
:10216C007869FFF799FEFA6810217869FFF7BAFED3
:10217C000346002B14BF01230023DBB2184618378B
:10218C00BD46B0BD80B588B000AF0023FB7733E00F
:10219C00FB7F184601F022F9B861BB69002B03D014
:1021AC00BB69B3F8482000E00022FB7F5B002033C2
:1021BC003B4423F8202CBB69002B03D0BB69B3F83C
:1021CC004C2000E00022FB7F04335B0020333B44B7
:1021DC0023F8202CBB69002B03D0BB69B3F84E202D
:1021EC0000E00022FB7F08335B0020333B4423F8E4
:1021FC00202CFB7F0133FB77FB7F032BC8D93B469D
:10220C001846FEF7FDFC00BF2037BD4680BD000020
:10221C0090B587B000AF324B1B78DBB283F0010373
:10222C00DBB2002B55D100F09DFF0346002B52D1A1
:10223C002B4B3C460FCB84E80F00BB78032B05D807
:10224C00BB78184601F0CAF8034600E000233B6156
:10225C003B69002B07D1BB78032B01D8032300E08B
:10226C000223FB7528E0FB78002B0AD0386901F0BB
:10227C00D7F90346002B14BF01230023DBB2FB75F7
:10228C001AE0D7ED017A97ED027AD7ED036AB0EE3A
:10229C00661AF0EE470AB0EE670A386901F0F2F9F7
:1022AC000346002B14BF01230023DBB2FB75FB7D1F
:1022BC00002B01D1FFF766FF7878B978FA7D3B697E
:1022CC00FFF7A0FE0346002B06D0054B00221A7028
:1022DC0002E000BF00E000BF1C37BD4690BD00BF50
:1022EC001007002480B400AF034B1B78DBB21846F8
:1022FC00BD465DF8047B7047CC03002480B483B0EA
:10230C0000AF78600B4B1B68002B01D100230AE057
:10231C00084B1B687A68D31A40F6B732934294BFC5
:10232C0001230023DBB218460C37BD465DF8047B55
:10233C00704700BFD003002490B587B000AF786021
:10234C0002F06CFB03461B01DCB202F073FB03468C
:10235C0003F00F03DBB223433B75564B1B687A68C3
:10236C00D31A40F2E73293428CBF01230023FB7453
:10237C00514B1B783A7D9A4214BF01230023BB7446
:10238C00FB7C83F00103DBB2002B06D0BB7C83F01B
:10239C000103DBB2002B40F08680FFF747FDF860AD
:1023AC00FB68002B00F081800023FB750023BB75BC
:1023BC0000237B7527E07B7D184601F00FF8B86091
:1023CC00BB68002B1BD07968B868FEF743FC03464A
:1023DC00002B07D07B7D012202FA03F3DAB2FB7DDE
:1023EC001343FB75BB681B7E002B09D07B7D012240
:1023FC0002FA03F3DAB2BB7D1343BB7500E000BFF6
:10240C007B7D01337B757B7D032BD4D9102200217E
:10241C00F86813F0D3FDFB68AB221A70FB6801332C
:10242C00CD221A70FB68023303221A70FB68033347
:10243C003A7D1A70FB681C1D02F008FB03462370E2
:10244C00FB6805331D4A1278D2B21A70FB6806334A
:10245C00FA7D1A70FB680733BA7D1A7002F002FB22
:10246C000346002B01D0012200E00022FB68083358
:10247C001A70FB6803F1090402F000FB0346237099
:10248C00F868FFF709FD4FF0FF321021F868FFF7ED
:10249C0029FD0346002B09D0064A7B681360064AC7
:1024AC003B7D137002E000BF00E000BF1C37BD464F
:1024BC0090BD00BF2807002440000024CC0300245A
:1024CC0080B582B000AF00F087F80346FB71FB7952
:1024DC00022B0AD1084B1B78012B06D100230022BA
:1024EC0090214FF0FF30FFF701FE034AFB79137088
:1024FC0000BF0837BD4680BD2C07002480B487B0D0
:10250C0000AFF860B9607A6000237B611DE0BA68A7
:10251C007B6913441B781A46FB685340FB6000230D
:10252C00FB740CE0FB6803F001035A420C4B1340A4
:10253C00FA6852085340FB60FB7C0133FB74FB7C54
:10254C00072BEFD97B6901337B617A697B689A42EF
:10255C00DDD3FB6818461C37BD465DF8047B70471D
:10256C002083B8ED80B483B000AF78607B68DB4328
:10257C0018460C37BD465DF8047B704780B400AF3D
:10258C00BFF34F8F00BF064BDB6803F4E0620449D6
:10259C00044B1343CB60BFF34F8F00BF00BFFDE76D
:1025AC0000ED00E00400FA0580B400AF00BFBD46AA
:1025BC005DF8047B7047000080B400AF054B00222F
:1025CC001A70044B00229A7700BFBD465DF8047B5D
:1025DC00704700BF3007002480B400AF034B1B785A
:1025EC001846BD465DF8047B704700BF30070024D9
:1025FC0080B584B000AFF860B9607A603B603B682E
:10260C00002B02D03B6800221A6002F007FA034646
:10261C00012B01D0012332E01B4B1B78002B01D086
:10262C0005232CE0FB68002B03D0FB68174A934270
:10263C0007D93B68002B02D03B68144A1A6002236E
:10264C001DE0114AFB6853600F4ABB6893600E4A49
:10265C007B68D3600C4B4FF0FF321A610A4B00229F
:10266C005A61094B4FF0FF329A61074B00221A77DF
:10267C00054B03225A77044B01221A70002318468B
:10268C001037BD4680BD00BF3007002400FC05009C
:10269C0080B58AB000AFBA607B600346FB810B4605
:1026AC00BB817B68002B02D07B6800221A603E4BFA
:1026BC001B78022B01D0052371E0FA893A4B9B69F8
:1026CC0001339A420BD07B68002B06D0364B9B69AA
:1026DC0023EAE3731A467B681A6003235FE0BB8925
:1026EC00B3F5807F01D9022359E0FA892F4B1344AB
:1026FC001B02FB61FB6903F580732D4A934201D9E0
:10270C0002234CE005F0AAFF002387F827300023B2
:10271C003B6218E03B6A5B01FA691344BB613B6A9C
:10272C005B01BA6813447B617A69B969012005F0D1
:10273C0025FF034687F8273097F82730002B06D162
:10274C003B6A01333B623B6A072BE3D900E000BFD5
:10275C0005F0A6FF97F82730002B04D0124B00226F
:10276C001A7004231BE0104B1B69BA89B968184610
:10277C00FFF7C4FE03460C4A13610B4B5A69BB8925
:10278C001344094A5361FB89074A93617B68002B08
:10279C0004D0054B9B691A467B681A6000231846C7
:1027AC002837BD4680BD00BF300700240408080050
:1027BC0000000E0880B5ADF5846D00AF07F584639D
:1027CC00A3F21C43186007F58463A3F21C431B6837
:1027DC00002B06D007F58463A3F21C431B68002270
:1027EC001A605B4B1B78022B01D00523AAE0584BD7
:1027FC001B691846FFF7B6FEC7F81404544B5A6908
:10280C00534B5B689A4205D1514B9B68D7F8142403
:10281C009A4213D04E4B00221A7007F58463A3F230
:10282C001C431B68002B07D007F58463A3F21C43E1
:10283C001B68D7F814241A60042383E007F584631B
:10284C00A3F58363434A1A60414BDA6807F5846346
:10285C00A3F583635A603E4B5A6807F58463A3F56E
:10286C0083639A603A4B9A6807F58463A3F5836394
:10287C00DA60FEF7D3F9024607F58463A3F58363A8
:10288C001A6107F1080314334FF47B72FF211846C9
:10289C0013F094FB05F0E2FE002387F81F340023AD
:1028AC00C7F8183421E0D7F818242B4B13445B01DC
:1028BC00C7F81034D7F818345B0107F10802134439
:1028CC00C7F80C34D7F80C24D7F81014012005F0F5
:1028DC0055FE034687F81F3497F81F34002B09D197
:1028EC00D7F818340133C7F81834D7F818341F2B1D
:1028FC00D9D900E000BF05F0D3FE97F81F34002BA8
:10290C0004D0134B00221A7004231BE0104B03223B
:10291C001A70422387F80B3497F80B3400220021ED
:10292C001846FEF727F907F58463A3F21C431B68CE
:10293C00002B06D007F58463A3F21C431B6801220D
:10294C001A600023184607F58467BD4680BD00BF9A
:10295C0030070024474D49500040400080B400AF80
:10296C00054B1B78032B0CBF01230023DBB218464D
:10297C00BD465DF8047B70473007002480B500AF7E
:10298C00054B01229A7702F0EFFD03463233024ADF
:10299C00136200BF80BD00BF3007002480B58AB031
:1029AC0000AF78602E4B9B7F002B07D02C4B1B6A03
:1029BC007A68D31A002B4CDBFFF7E0FD284B1B7811
:1029CC00012B48D1264B1A7F254B5B7F9A4203D3B0
:1029DC00234B02221A703FE0214B1B7F04337B6296
:1029EC0007F10C0300221A605A609A60DA601A61CF
:1029FC000023FB6001233B617B6A7B610123BB618C
:102A0C002023FB614FF0FF33BB6005F027FE07F17D
:102A1C00080207F10C031146184605F0AFFE0346F9
:102A2C0087F8233005F03CFE97F82330002B03D1B8
:102A3C00BB68B3F1FF3F03D0094B00221A700BE0C7
:102A4C00074B1B7F0133DAB2054B1A77FFF7ACFD4E
:102A5C0002E000BF00E000BF2837BD4680BD00BFCC
:102A6C003007002480B485B000AF78607B681B7899
:102A7C001A047B6801331B781B0213437A680232F9
:102A8C0012781343FB60FB681B11FB60FB6803F4BB
:102A9C000023002B03D0FA68044B1343FB60FB6844
:102AAC0018461437BD465DF8047B70470000F0FFF4
:102ABC0080B485B000AF78607B681B781A047B68A3
:102ACC0001331B781B0213437A68023212781343CA
:102ADC00FB60FB681B09C3F3130318461437BD4690
:102AEC005DF8047B7047000080B584B000AFF860DF
:102AFC000B467A60FB72FB7A013B062B6FD801A266
:102B0C0052F823F02D2B0008EB2B0008EB2B0008C0
:102B1C00EB2B0008612B0008B12B0008892B000857
:102B2C007B681B781BB21B021AB27B6801331B78C3
:102B3C001BB213431BB29AB2FB689A81FB689B8948
:102B4C004FF66A3293420CBF01230023DAB2FB68C2
:102B5C001A7645E07868FFF7ABFF0246FB689A638C
:102B6C00FB689B6B07EE903AF8EE677A9FED1E7A46
:102B7C0067EE877AFB68C3ED077A31E07868FFF778
:102B8C0071FF0246FB68DA63FB68DB6B07EE903A79
:102B9C00F8EEE77A9FED157A67EE877AFB68C3ED5E
:102BAC00097A1DE07B681B781BB21B021AB27B688A
:102BBC0001331B781BB213431AB2FB68A3F84420F1
:102BCC00FB68B3F9443007EE903AF8EEE77A9FEDE4
:102BDC00087A67EE877AFB68C3ED0B7A00E000BFDA
:102BEC0000BF1037BD4680BDCDCC4C390AD7A338B9
:102BFC000000003C90B58BB004AFF8607A601A46C8
:102C0C000B46FB721346BB7200237B6119E0134B1E
:102C1C001868FB681B785B0099B2FB7A9AB2BB7A96
:102C2C009BB20524029401937B680093012306F068
:102C3C0027FA0346002B01D100230BE07B690133FB
:102C4C007B617B69022BE2D9FB685B695A1CFB68D0
:102C5C005A61012318461C37BD4690BD5407002409
:102C6C0080B588B004AF78600B46FB7013463B8090
:102C7C003B881B0A9BB2DBB23B723B88DBB27B729C
:102C8C000023FB6019E0134B18687B681B785B0012
:102C9C0099B2FB789AB2052302930223019307F1B0
:102CAC0008030093012306F0D7F80346002B01D14B
:102CBC0000230BE0FB680133FB60FB68022BE2D9BD
:102CCC007B685B695A1C7B685A6101231846103774
:102CDC00BD4680BD5407002480B586B000AFF860B7
:102CEC000B467A60FB7207F11402F97A0223F8683A
:102CFC00FFF780FF0346FB75FB7D002B0AD13B7D64
:102D0C001BB21B021AB27B7D1BB213431BB29AB2CD
:102D1C007B681A80FB7D18461837BD4680BD0000C5
:102D2C0080B582B000AF786039607B68002B02D030
:102D3C003B68002B01D1042317E0242200210D480D
:102D4C0013F03CF90B4A7B6813600A4A3B685360EA
:102D5C00084B094ADA60074B04221A74054B00220F
:102D6C005A72044B01221A72002318460837BD46CA
:102D7C0080BD00BF5407002468600108B0B58AB05C
:102D8C0000AF78604B4B1B7A83F00103DBB2002B56
:102D9C0002D17B68002B01D1042387E0454B5B7A81
:102DAC00DBB2012B01D1032380E07B6800221A7671
:102DBC0007F120031A463E217868FFF78DFF034682
:102DCC0087F8233097F82330002B02D097F8233064
:102DDC006CE03B8C45F24942934201D0022365E002
:102DEC004FF4004200217868FFF73AFF034687F85A
:102DFC00233097F82330002B02D097F8233055E07E
:102E0C00022002F0BDFB2C4B07F10C041D460FCD2C
:102E1C000FC42B68236000237B621CE07B6A9B0041
:102E2C0028333B4413F81C1C7B6A9B0028333B441F
:102E3C0033F81A3C1A467868FFF712FF034687F8F6
:102E4C00233097F82330002B02D097F823302DE055
:102E5C007B6A01337B627B6A042BDFD97B680E3380
:102E6C001A460B217868FFF737FF034687F82330A3
:102E7C0097F82330002B02D097F8233016E07B68AC
:102E8C00DB8903F00103002B06D17B681B8A43F01E
:102E9C0001039AB27B681A82786800F0F0FA7B68BA
:102EAC0000229A727B6801221A7600231846283772
:102EBC00BD46B0BD540700245460010880B582B0F3
:102ECC0000AF0023FB71164B1B7A83F00103DBB2BE
:102EDC00002B01D004231EE00023BB7112E0104B29
:102EEC005A68BB79682101FB03F313441846FFF7BA
:102EFC0045FF0346002B02D1FB790133FB71BB79F3
:102F0C000133BB71BB79032BE9D9FB79002B0CBFC7
:102F1C0001230023DBB218460837BD4680BD00BF35
:102F2C005407002480B500AF02F01EFB0346064A8E
:102F3C001362054B9B690133034A9361024B0222D6
:102F4C005A7200BF80BD00BF5407002480B584B006
:102F5C0002AF40E0264BDA68254BDB7ADBB25B0034
:102F6C0013447B6002F000FB0346214A5361204B63
:102F7C0018681F4B5A681E4B9B7ADBB219466823A4
:102F8C0001FB03F313441B785B0099B27B681B783D
:102F9C001A467B685B780193164B0093012306F06D
:102FAC0089F90346002B1ED0114B5A68104B9B7AA3
:102FBC00DBB21946682301FB03F313445A6901324F
:102FCC005A610B4B0022DA72094B9B7ADBB201334C
:102FDC00DAB2074B9A72064B9B7ADBB2032BB9D948
:102FEC00FFF7A0FF00E000BF0837BD4680BD00BF63
:102FFC0054070024A003003090B583B000AF034603
:10300C00FB71FB79002B1DD01C4BDB7ADBB201333F
:10301C00DBB21A4A1946D172184A127C934202D278
:10302C00FFF794FF27E0154B5A68144B9B7ADBB2E1
:10303C001946682301FB03F3D41802F095FA0346F2
:10304C0023630CE00D4B5A680C4B9B7ADBB2194690
:10305C00682301FB03F313445A6901325A61074B8D
:10306C000022DA72054B9B7ADBB20133DAB2034BE6
:10307C009A72FFF76BFF0C37BD4690BD54070024C6
:10308C0080B500AF114B1B7A83F00103DBB2002B30
:10309C0001D0042318E00D4B5B7ADBB2012B01D17C
:1030AC00032311E0094B0A4ADA60084B04221A7414
:1030BC00064B00229A72054B0022DA72034B012256
:1030CC005A72FFF743FF0023184680BD54070024B3
:1030DC006860010880B582B000AF7860134B1B6844
:1030EC007A689A421ED1114B5B7ADBB2012B19D153
:1030FC000E4B5A680D4B9B7ADBB21946682301FBC9
:10310C0003F3D018094BDA68084BDB7ADBB25B00AF
:10311C0013441B78064A1946FFF7E6FC0120FFF71B
:10312C006BFF00E000BF0837BD4680BD540700248C
:10313C00A003003080B582B000AF7860084B1B68EC
:10314C007A689A4208D1064B5B7ADBB2012B03D129
:10315C000020FFF751FF00E000BF0837BD4680BDDF
:10316C005407002480B400AF034B5B7ADBB21846E3
:10317C00BD465DF8047B704754070024B0B485B09D
:10318C0000AF7860184B5B7ADBB2022B27D17B68DF
:10319C00002B20D00023FB731AE0134B5A68FB7BE7
:1031AC00682101FB03F3D118FA7B13465B0013442F
:1031BC00DB001A467B6813441D4601F11C040FCC3E
:1031CC000FC594E8030085E80300FB7B0133FB7318
:1031DC00FB7B032BE1D9044B00225A7200E000BFA9
:1031EC001437BD46B0BC70475407002480B582B07C
:1031FC0000AF7860194B5B7ADBB2012B28D1174BEF
:10320C005B697A68D31A0A2B24D972B600BF134BA8
:10321C0000225A7262B600BF104B18680F4B5A68E6
:10322C000E4B9B7ADBB21946682301FB03F3134464
:10323C001B785B009BB2194606F022F9074B1B6802
:10324C0000225A64054BDB690133044AD36102E066
:10325C0000BF00E000BF0837BD4680BD5407002406
:10326C0080B485B000AF0346FB80164B1B7A83F00D
:10327C000103DBB2002B1ED10023FB7317E0114BB3
:10328C005A68FB7B682101FB03F313441B89FA8802
:10329C009A4209D10B4B5A68FB7B682101FB03F363
:1032AC00134401229A7207E0FB7B0133FB73FB7B17
:1032BC00032BE4D900E000BF1437BD465DF8047B56
:1032CC00704700BF5407002480B586B000AF0023C0
:1032DC00FB7502F049F938613F4B5B7ADBB2012B8D
:1032EC0001D1032373E00023BB756CE03A4B5A68A1
:1032FC00BB7D682101FB03F31344FB60FB681B6E71
:10330C003A69D31AF92B8CBF01230023FB72FB689B
:10331C009B7ADBB283F00103DBB2002B05D0FB7A86
:10332C0083F00103DBB2002B47D1FB681B6E3A69BB
:10333C00D31A132B43D9FB683A691A66FB6800222F
:10334C009A72FB680E331A460B21F868FFF7C4FC1F
:10335C000346002B05D0FB6801229A720123FB75F2
:10336C002EE0FB68DB8903F0FC033B81FB681B8AC6
:10337C001BB2DB431AB2B7F9083013401BB2FB8007
:10338C00FB681A8A3B8913439AB2FB681A82FB8842
:10339C00002B03D0FB68012283F86420FB685A6879
:1033AC00FB681B891946104605F06EFC0346002B82
:1033BC0006D1FB6801229A7202E000BF00E000BF58
:1033CC00BB7D0133BB75BB7D032B8FD9FB7D1846B1
:1033DC001837BD4680BD00BF5407002480B483B0AD
:1033EC0000AF0346FB710C4B1B7A83F00103DBB27D
:1033FC00002B02D1FB79032B01D9002306E0064BED
:10340C005A68FB79682101FB03F3134418460C3707
:10341C00BD465DF8047B70475407002480B582B02C
:10342C0000AF78607868FFF755FE00BF0837BD46DF
:10343C0080BD80B582B000AF78607868FFF77AFE07
:10344C0000BF0837BD4680BD80B582B000AF0346D3
:10345C00FB80FB88102B08D0FB88802B05D0FB88C9
:10346C00402B02D0FB88202B05D101F083F8FB8880
:10347C001846FFF7F5FE00BF0837BD4680BD80B586
:10348C0084B000AF78607B6893F85C3083F0010304
:10349C00DBB2002B01D0002326E07B68B3F8483068
:1034AC001A460C217868FFF7DBFB0346FB73FB7BAA
:1034BC00002B01D0FB7B17E07B68B3F84C301A462D
:1034CC000E217868FFF7CCFB0346FB73FB7B002BCC
:1034DC0001D0FB7B08E07B68B3F84E301A460F2115
:1034EC007868FFF7BDFB034618461037BD4680BD14
:1034FC0080B485B000AF87ED010AD7ED017AF0EE0C
:10350C00E77A9FED1D7AF4EE477AF1EE10FA06D8C1
:10351C00D7ED017AF5EEC07AF1EE10FA02D847F643
:10352C00FF7322E0D7ED017A9FED147A27EE877AAC
:10353C00DFED136AC7EE267AC7ED037AD7ED037A6F
:10354C009FED107AF4EEC77AF1EE10FA01DD0E4B16
:10355C00FB60D7ED037AB6EE007A77EE877AFDEE54
:10356C00E77A17EE903A1BB29BB218461437BD4659
:10357C005DF8047B704700BFFFFF7F7F6F12833ABB
:10358C00ACC5A73500FEFF4600FEFF4680B485B0F3
:10359C0000AF87ED010A03467B80D7ED017AF0EE90
:1035AC00E77A9FED1B7AF4EE477AF1EE10FA06D823
:1035BC00D7ED017AF5EEC07AF1EE10FA01D87B88DE
:1035CC0020E097ED017ADFED136AC7EE267AC7ED9E
:1035DC00037AD7ED037A9FED107AF4EEC77AF1EE09
:1035EC0010FA01DD0D4BFB60D7ED037AB6EE007AD5
:1035FC0077EE877AFCEEE77A17EE903A9BB2C3F33C
:10360C000E039BB218461437BD465DF8047B704719
:10361C00FFFF7F7FCDCC4C3B00FEFF4600FEFF46FC
:10362C0080B584B000AF78607B68002B01D1042397
:10363C0023E07B6848331A460C217868FFF74CFB73
:10364C000346FB73FB7B002B01D0FB7B15E07B68F7
:10365C004C331A460E217868FFF73EFB0346FB738A
:10366C00FB7B002B01D0FB7B07E07B684E331A46BB
:10367C000F217868FFF730FB034618461037BD461C
:10368C0080BD000080B586B000AFF86087ED020AFF
:10369C00C7ED010A87ED001AFB68002B01D104234A
:1036AC0044E0244B5B7ADBB2002B01D003233DE0DA
:1036BC00FB68BA681A65FB687A685A65FB683A68F1
:1036CC009A6597ED020AFFF713FF03461A46FB684B
:1036DC00A3F84820FB684FF40042A3F84A2047F6B1
:1036EC00FF7097ED010AFFF751FF03461A46FB687E
:1036FC00A3F84C20002097ED000AFFF747FF034684
:10370C001A46FB68A3F84E20FB68012283F85C2064
:10371C00F868FFF7B4FE0346FB75FB7D002B01D068
:10372C00FB7D03E0F868FFF77BFF0346184618376C
:10373C00BD4680BD5407002480B485B000AF03465D
:10374C00FB710023FB60FB79082B01D90823FB716B
:10375C000023FB720AE0FB7A5B00012202FA03F3FE
:10376C00FA681343FB60FB7A0133FB72FA7AFB793C
:10377C009A42F0D3FB6818461437BD465DF8047BBB
:10378C00704780B582B000AF78600B467B801346E3
:10379C007B707B7883F00103DBB21A467B88194679
:1037AC00786805F089FA00BF0837BD4680BD80B443
:1037BC0083B000AF0346FB71FB7903F00203002BCF
:1037CC0002D04FF0153309E0FB7903F00103002B15
:1037DC0002D14FF0053301E04FF0013318460C379E
:1037EC00BD465DF8047B704780B500AF134B0022DB
:1037FC001A7001F0B9FE0346114A1360114B4FF0D9
:10380C00FF321A60104B4FF0FF321A600F4B4FF023
:10381C00FF321A6001224FF400610D48FFF7B1FF2F
:10382C00012204210B48FFF7ACFF01224FF4805119
:10383C000748FFF7A6FF00BF80BD00BF8407002428
:10384C0088070024780700247C07002480070024C4
:10385C0000080258000C025880B586B000AF034631
:10386C00FB710B46BB7113467B71FB79052B61D841
:10387C0001A252F823F000BF9D380008B1380008AF
:10388C00D5380008EB380008113900083139000828
:10389C004FF0FF337B614FF0FF333B614FF0FF3351
:1038AC00FB6050E07B791846FFF781FF78610023BD
:1038BC003B617B7903F00C03002B02D04FF01033EB
:1038CC0000E00023FB603EE07B791846FFF76FFFBA
:1038DC0078614FF055333B610023FB6033E07B791B
:1038EC001846FFF764FF78614FF0FF333B617B793B
:1038FC0003F00C03002B02D04FF0103300E0002338
:10390C00FB6020E000237B6100233B61BB79184600
:10391C00FFF712FFF860FB68002B13D14FF0553303
:10392C00FB600FE000237B6100233B614FF0FF3312
:10393C00FB6008E000237B6100233B614FF05533B3
:10394C00FB6000E000BF0E4B1B687A699A4202D004
:10395C000B4A7B6913600B4B1B683A699A4202D085
:10396C00084A3B691360084B1B68FA689A4202D0FC
:10397C00054AFB68136000BF1837BD4680BD00BF09
:10398C00780700247C0700248007002480B584B0CD
:10399C0000AF78602A4B1B687A68D31A632B4AD91C
:1039AC00274B1B686433264A1360254B1B687A68C7
:1039BC00D31AB3F57A7F02D9214A7B681360214B65
:1039CC001B781A4601239340FB601F4B1A68FB6857
:1039DC001340002B14BF01230023DBB21A464FF413
:1039EC0000611A48FFF7CDFE194B1A68FB681340AB
:1039FC00002B14BF01230023DBB21A460421154807
:103A0C00FFF7BFFE144B1A68FB681340002B14BF62
:103A1C0001230023DBB21A464FF480510B48FFF709
:103A2C00B0FE084B1B780133DBB203F01F03DAB294
:103A3C00044B1A7000E000BF1037BD4680BD00BFBC
:103A4C008807002484070024780700240008025803
:103A5C007C070024000C02588007002480B483B03B
:103A6C0000AF786039607B681B6B3A68D31A40F200
:103A7C00F312934294BF01230023DBB218460C3798
:103A8C00BD465DF8047B704780B594B000AFB94B70
:103A9C00B94A9A60BFF34F8F00BFBFF36F8F00BF5F
:103AAC0000F05AFCB34B5B6903F40033002B1BD1C1
:103ABC00BFF34F8F00BFBFF36F8F00BFAD4B002222
:103ACC00C3F85022BFF34F8F00BFBFF36F8F00BFFF
:103ADC00A84B5B69A74A43F400335361BFF34F8F84
:103AEC0000BFBFF36F8F00E000BF01F0B7FCA34B2A
:103AFC00D3F8DC30A14A43F00053C2F8DC309F4BC2
:103B0C00D3F8DC3003F00053FB61FB699B4BD3F81B
:103B1C00DC309A4A43F08043C2F8DC30974BD3F840
:103B2C00DC3003F08043BB61BB6900F02DF900F081
:103B3C001DFB00F0C3FA00F0DDF900F09BF900F07A
:103B4C0025FA00F06FFA11F04BFDFFF74DFE00F077
:103B5C00EDFCFEF731FDFCF7D7FD89498948FFF7ED
:103B6C00DFF8FFF7ABF93B461846FDF725F803469F
:103B7C00002B3DD0002387F84F3035E097F84F30BD
:103B8C001846FFF72BFCB863BB6B002B26D097F8BD
:103B9C004F305B0050333B4433F8502CBB6BA3F8D5
:103BAC00482097F84F3004335B0050333B4433F8D4
:103BBC00502CBB6BA3F84C2097F84F3008335B00AC
:103BCC0050333B4433F8502CBB6BA3F84E20B86BEE
:103BDC00FFF755FCB86BFFF723FD00E000BF97F82B
:103BEC004F30013387F84F3097F84F30032BC5D93E
:103BFC00FEF756F80023BB6400237B6400233B6470
:103C0C0007F1200300221A605A609A6007F1200322
:103C1C0019464120FCF772FF034687F8373097F8B6
:103C2C003730002B03D097F82830002B01D001231C
:103C3C0000E0002387F83F3097F83F3003F0010392
:103C4C0087F83F3001F090FC3863322001F098FC8B
:103C5C0001F08AFCF862F86AFFF7C8FAFA6A7B6C22
:103C6C00D31A092B06D9FB6A7B64FDF7C5F8F86AF1
:103C7C00FEF794F8FA6ABB6CD31A3B2B03D9FB6A98
:103C8C00BB64FEF767F8FDF7A9FFF86AFEF772F858
:103C9C00FFF768FA0346002B41D1FFF715FBFEF73F
:103CAC00B7FAFA6A3B6CD31AF92B38D9FB6A3B6426
:103CBC00002387F83E302EE097F83E30304A6821DA
:103CCC0001FB03F3134418331B78002B1BD197F81B
:103CDC003E30682202FB03F3294A1344F96A184662
:103CEC00FFF7BCFE034683F00103DBB2002B0CD1C3
:103CFC0097F83E30682202FB03F3214A134418461E
:103D0C00FFF73CF802E000BF00E000BF97F83E3040
:103D1C00013387F83E3097F83E30032BCCD9F86A44
:103D2C0000F040FCF86AFEF739FEF86AFEF704FB77
:103D3C00FEF7C6FBF86AFFF729FE97F83F3083F0D1
:103D4C000103DBB2002B83D0FA6A3B6BD31A42F22D
:103D5C000F7293427FF67CAF012200214120FCF7C9
:103D6C0009FF0346002B3FF473AF012387F83F3064
:103D7C006EE700BF00ED00E00000000800440258B0
:103D8C00440000248C07002480B59CB000AF07F1E0
:103D9C0024034C220021184612F010F93B1D20225E
:103DAC000021184612F00AF9042008F0E1FF002364
:103DBC003B602F4B9B6923F440432D4A43F4004353
:103DCC0093612B4B9B6903F440433B603B6800BF02
:103DDC00274B9B6903F40053B3F5005FF8D1232301
:103DEC007B624FF4A023BB6201233B6340237B63C4
:103DFC000123FB630223BB640223FB6405233B65A5
:103E0C0028237B650123BB650523FB6505233B66E6
:103E1C0008237B660023BB660023FB6607F12403A3
:103E2C00184609F00FF80346002B01D000F0C0FA39
:103E3C003F237B600323BB600023FB6008233B61B3
:103E4C0040237B614023BB614FF48063FB614023C3
:103E5C003B623B1D0121184609F0CEFB0346002BAB
:103E6C0001D000F0A5FA00BF7037BD4680BD00BF81
:103E7C000048025880B500AF1B4B1C4A1A601A4B05
:103E8C001B4A5A60184B00229A60174B0122DA60C9
:103E9C00154B00221A61144B00225A61124B00225E
:103EAC009A61114B0022DA610F4B00221A620E4804
:103EBC0004F036FF0346002B01D000F079FA002104
:103ECC00094807F003FC0346002B01D000F070FA00
:103EDC000221054807F045FC0346002B01D000F0F9
:103EEC0067FA00BF80BD00BF8C070024005400405F
:103EFC006A1FC00080B500AF224B234A1A60214BC9
:103F0C004FF4E1325A601F4B00229A601D4B002285
:103F1C00DA601C4B00221A611A4B0C225A61194BA5
:103F2C0000229A61174B0022DA61164B00221A62AA
:103F3C00144B00225A62134B00229A6211480BF068
:103F4C00A9FC0346002B01D000F032FA00210D48E9
:103F5C000DF0EBFE0346002B01D000F029FA0021F6
:103F6C0008480DF020FF0346002B01D000F020FA8A
:103F7C0004480DF0A1FE0346002B01D000F018FA06
:103F8C0000BF80BDD0080024004C004080B500AFBD
:103F9C00224B234A1A60214B4FF4E1325A601F4BDB
:103FAC0000229A601D4B0022DA601C4B00221A6121
:103FBC001A4B0C225A61194B00229A61174B0022A2
:103FCC00DA61164B00221A62144B00225A62134B10
:103FDC0000229A6211480BF05DFC0346002B01D0C5
:103FEC0000F0E6F900210D480DF09FFE0346002B72
:103FFC0001D000F0DDF9002108480DF0D4FE034695
:10400C00002B01D000F0D4F904480DF055FE034606
:10401C00002B01D000F0CCF900BF80BD6409002456
:10402C000050004080B500AF224B234A1A60214B50
:10403C004FF4E1325A601F4B00229A601D4B002254
:10404C00DA601C4B00221A611A4B0C225A61194B74
:10405C0000229A61174B0022DA61164B00221A6279
:10406C00144B00225A62134B00229A6211480BF037
:10407C0011FC0346002B01D000F09AF900210D48E9
:10408C000DF053FE0346002B01D000F091F90021F6
:10409C0008480DF088FE0346002B01D000F088F98B
:1040AC0004480DF009FE0346002B01D000F080F906
:1040BC0000BF80BDF80900240010014080B582B01B
:1040CC0000AF294BD3F8D830274A43F00103C2F88C
:1040DC00D830254BD3F8D83003F001037B607B68D4
:1040EC00002203210B2001F04AFB0B2001F061FBA5
:1040FC00002203210C2001F042FB0C2001F059FBA3
:10410C00002205210D2001F03AFB0D2001F051FB9E
:10411C00002205210E2001F032FB0E2001F049FB9C
:10412C00002205210F2001F02AFB0F2001F041FB9A
:10413C0000220621102001F022FB102001F039FB97
:10414C0000220621112001F01AFB112001F031FB95
:10415C00002206212F2001F012FB2F2001F029FB59
:10416C0000BF0837BD4680BD0044025880B58AB0F8
:10417C0000AF07F1140300221A605A609A60DA60EB
:10418C001A61704BD3F8E0306E4A43F00403C2F866
:10419C00E0306C4BD3F8E03003F004033B613B6937
:1041AC00684BD3F8E030674A43F08003C2F8E03044
:1041BC00644BD3F8E03003F08003FB60FB68614B89
:1041CC00D3F8E0305F4A43F00103C2F8E0305D4BB6
:1041DC00D3F8E03003F00103BB60BB68594BD3F854
:1041EC00E030584A43F00203C2F8E030554BD3F8A4
:1041FC00E03003F002037B607B68524BD3F8E03075
:10420C00504A43F00803C2F8E0304E4BD3F8E0308C
:10421C0003F008033B603B68002204214A4804F089
:10422C004BFD002240F20461484804F045FD002299
:10423C004FF4D251464804F03FFD0022042145487A
:10424C0004F03AFD04237B610123BB610023FB6175
:10425C0000233B6207F1140319463B4804F062FB50
:10426C0008237B610023BB610123FB6107F114036D
:10427C001946354804F056FBF0237B614FF40413C8
:10428C00BB610123FB6107F1140319462E4804F0AE
:10429C0049FB30237B610023BB610023FB6107F1E9
:1042AC00140319462A4804F03DFB03237B610023C9
:1042BC00BB610023FB6107F114031946234804F08A
:1042CC0031FB40F204637B610123BB610023FB6182
:1042DC0000233B6207F1140319461C4804F022FB2F
:1042EC004FF4D2537B610123BB610023FB6100239C
:1042FC003B6207F114031946154804F013FB042321
:10430C007B610123BB610023FB6100233B6207F14E
:10431C00140319460F4804F005FB002204210A205F
:10432C0001F02DFA0A2001F044FA00220421172092
:10433C0001F025FA172001F03CFA00BF2837BD46E2
:10434C0080BD00BF0044025800000258000402580F
:10435C0000080258000C025880B584B000AF3B46F0
:10436C0000221A605A609A60DA6001F03DFA01236B
:10437C003B7000237B7000237B601F233B728723E1
:10438C007B720023BB720023FB7201233B7301235E
:10439C007B730023BB730023FB733B46184601F071
:1043AC005BFA042001F038FA00BF1037BD4680BD1F
:1043BC0080B400AF72B600BF00BFFDE780B483B01D
:1043CC0000AF786039607B681B6B3A68D31A40F297
:1043DC00F312934294BF01230023DBB218460C372F
:1043EC00BD465DF8047B704780B584B000AF0346D2
:1043FC00FB71FB79FB73FB7B1A464FF4007105488C
:10440C0004F05AFC044AFB79537400BF1037BD46C4
:10441C0080BD00BF000402585C0D002480B483B042
:10442C0000AF03463960FB71094B1B78DBB2FA799C
:10443C009A4206D0064AFB791370054A3B68936092
:10444C0000E000BF0C37BD465DF8047B704700BF31
:10445C005C0D002480B582B000AF0023FB7115E029
:10446C00FB791846FEF7BAFF38603B68002B0AD080
:10447C003B681B8A03F001039AB23B681A823B68C3
:10448C00002283F86420FB790133FB71FB79032B49
:10449C00E6D900BF00BF0837BD4680BD80B483B0ED
:1044AC0000AF0346FB80FB8803F06003002B01D0B8
:1044BC0001231CE0FB8803F00403002B01D0012333
:1044CC0015E0FB8803F01003002B01D002230EE053
:1044DC00FB8803F08003002B01D0042307E0FB884A
:1044EC0003F00803002B01D0032300E0002318463F
:1044FC000C37BD465DF8047B7047000080B483B078
:10450C0000AFFC23FB80084B1B78DBB2032B03D0E2
:10451C00FB8823F00803FB80FB8818460C37BD464C
:10452C005DF8047B704700BF5C0D002480B500AFC4
:10453C000F4B00221A700E4B00225A700C4B0022AB
:10454C009A700B4B0022DA70094B00221A71084B3F
:10455C0000221A7401F008F80346054A9360044BD4
:10456C009B68034AD3600020FFF73EFF00BF80BD6D
:10457C005C0D002480B500AF094B1B78DBB2032B1C
:10458C0004D0074B1B78DBB2022B06D10020FFF7BF
:10459C002BFF034B01225A7000E000BF80BD00BF0F
:1045AC005C0D002480B588B000AF78600023FB83DD
:1045BC0000237B7700233B770023FB760023BB761D
:1045CC00FFF79CFF0346FB8200237B764EE07B7E4D
:1045DC001846FEF703FFF860FB68002B08D17B7EC2
:1045EC00012202FA03F3DAB23B7F13433B773AE042
:1045FC00FB681A8AFB8A13407B817B89002B0BD0CA
:10460C00FA8B7B891343FB837B7E012202FA03F333
:10461C00DAB27B7F13437B777968F868FFF7CEFEBD
:10462C000346002B17D07B7E012202FA03F3DAB289
:10463C00BB7E1343BB76FB681B7E83F00103DBB2AE
:10464C00002B10D07B7E012202FA03F3DAB2FB7E40
:10465C001343FB7607E07B7E012202FA03F3DAB206
:10466C003B7F13433B777B7E01337B767B7E032B37
:10467C00ADD9FDF737FE0346002B14BF01230023F1
:10468C007B757B7D002B0BD0A54B1B78DBB2032BF2
:10469C0004D0A34B1B78DBB2022B01D1012300E029
:1046AC0000233B753B7D03F001033B75BB7E002B68
:1046BC000CBF01230023FB74994B5B78DBB2002BFE
:1046CC0023D0974B00225A70954B1B78DBB2032BEF
:1046DC0004D0934B1B78DBB2022B16D1904B0022EB
:1046EC009A708F4B0022DA708D4A7B68D3608C4BAA
:1046FC001B79FF2B05D08A4B1B790133DAB2884B1F
:10470C001A7179680420FFF789FE854B1B78DBB2A0
:10471C00052B00F2F78001A252F823F04147000864
:10472C0065470008974700080F480008AB48000889
:10473C00094900080020FFF757FE794B9B687A68FF
:10474C00D31AB3F5FA7FC0F0E280FFF783FE7968E5
:10475C000120FFF763FEDAE00020FFF745FE704B07
:10476C001B7C002B00F0D5806D4B9B687A68D31AAC
:10477C00632B40F2CE80FFF76DFE0120FFF734FE75
:10478C0079680220FFF74AFEC3E0654B1B7C83F07F
:10479C000103DBB2002B07D00020FFF725FE796860
:1047AC000120FFF73BFEBEE03B7D002B1AD0002022
:1047BC00FFF71AFE5A4B05229A70594B0022DA70F9
:1047CC00574A7B68D360564B1B79FF2B05D0544B53
:1047DC001B790133DAB2524B1A7179680420FFF756
:1047EC001DFEA0E04E4B9B687A68D31AB3F5C87FC8
:1047FC00C0F09180FFF72EFE79680320FFF70EFEC4
:10480C0089E0474B1B7C83F00103DBB2002B07D004
:10481C000020FFF7E9FD79680120FFF7FFFD82E03A
:10482C003F4B9B687A68D31A42F20F72934202D9BB
:10483C003B4B00221A71FB8B002B02D13B7D002BD2
:10484C006BD00020FFF7D0FD354A7B7FD3703B7DCA
:10485C00002B03D0324B05229A700EE0FB8B002B01
:10486C0008D0FB8B1846FFF719FE03461A462C4B53
:10487C009A7002E02A4B06229A70294A7B68D36010
:10488C00274B1B79FF2B05D0254B1B790133DAB253
:10489C00234B1A7179680420FFF7C0FD3DE000201E
:1048AC00FFF7A2FD1E4B9B78002B1ED11C4BDB6827
:1048BC007A68D31A632B18D9FB8B002B0BD0FB8B8C
:1048CC001846FFF7EBFD03461A46154B9A70144A2F
:1048DC007B7FD37009E03B7D002B03D0104B05226E
:1048EC009A7002E00E4B06229A700D4B1B79022B2C
:1048FC0018D979680520FFF791FD13E00020FFF728
:10490C0073FD10E079680020FFF788FD0BE000BF15
:10491C0009E000BF07E000BF05E000BF03E000BFF7
:10492C005C0D002400BF00233B767868FDF7E6FCA5
:10493C000346002B03D03B7E43F001033B763B7FC9
:10494C00002B03D03B7E43F002033B76FB7C002B19
:10495C0003D03B7E43F004033B76FB7E002B0AD155
:10496C003B7D002B07D1FB8B002B08D00A4B1B780F
:10497C00DBB2042B03D03B7E43F008033B76064BA3
:10498C001B78DBB2044A91783A7E1846FEF764FF36
:10499C0000BF2037BD4680BD5C0D002480B483B0C1
:1049AC0000AF0346FB71FB79002B0BD00A4B1B7835
:1049BC00DBB2042B04D0084B1B78DBB2052B01D1E6
:1049CC00002303E0044AFB791374012318460C37C7
:1049DC00BD465DF8047B70475C0D002480B500AFCC
:1049EC00FFF738FD0C4B00229A700B4B0022DA704B
:1049FC00094B00221A74084B1B78DBB2042B09D12B
:104A0C00054B00221A7100F0AFFD03461946012038
:104A1C00FFF704FD00BF80BD5C0D002480B400AF27
:104A2C00034B1B78DBB21846BD465DF8047B704720
:104A3C005C0D002480B400AF034B9B781846BD4638
:104A4C005DF8047B704700BF5C0D002480B400AFA0
:104A5C00034BDB781846BD465DF8047B704700BFFE
:104A6C005C0D002480B400AF034B5B7C1846BD4644
:104A7C005DF8047B704700BF5C0D002480B400AF70
:104A8C00034B1B791846BD465DF8047B704700BF8D
:104A9C005C0D002480B483B000AF0A4BD3F8F43023
:104AAC00084A43F00203C2F8F430064BD3F8F43052
:104ABC0003F002037B607B6800BF0C37BD465DF8DA
:104ACC00047B70470044025880B5B8B000AF7860E2
:104ADC0007F1CC0300221A605A609A60DA601A61FE
:104AEC0007F11003B8220021184611F067FA7B6811
:104AFC001B685D4A934240F0B3804FF008024FF0C0
:104B0C000003C7E904234FF40053C7F8903007F1B2
:104B1C001003184609F0FCF80346002B01D0FFF7F0
:104B2C0047FC524BD3F8E030504A43F00203C2F832
:104B3C00E0304E4BD3F8E03003F00203FB60FB682F
:104B4C00C023C7F8CC301223C7F8D0300023C7F8E5
:104B5C00D4300023C7F8D8300423C7F8DC3007F171
:104B6C00CC031946424803F0DDFE404BD3F8E83045
:104B7C003E4A43F40013C2F8E8303C4BD3F8E8301B
:104B8C0003F40013BB60BB683A4B3B4A1A60394BC9
:104B9C0021225A60374B00229A60364B0022DA6091
:104BAC00344B4FF480621A61324B00225A61314B04
:104BBC0000229A612F4B0022DA612E4B4FF4803287
:104BCC001A622C4B00225A622A4800F085FE0346DA
:104BDC00002B01D0FFF7ECFB7B68264ADA63254AF1
:104BEC007B689363254B264A1A60244B22225A6019
:104BFC00224B40229A60214B0022DA601F4B4FF46B
:104C0C0080621A611D4B00225A611C4B00229A6172
:104C1C001A4B0022DA61194B4FF480321A62174B8F
:104C2C0000225A62154800F057FE0346002B01D0B3
:104C3C00FFF7BEFB7B68114A9A63104A7B6893634B
:104C4C00002203211F2000F09AFD1F2000F0B1FD6F
:104C5C0000220321202000F092FD202000F0A9FD6D
:104C6C0000BFE037BD4680BD0054004000440258F0
:104C7C0000040258E00700241000024058080024E9
:104C8C002800024080B5BCB000AF786007F1DC03AF
:104C9C0000221A605A609A60DA601A6107F12003E8
:104CAC00B8220021184611F089F97B681B68B04ABC
:104CBC00934240F0AB804FF002024FF00003C7E983
:104CCC0008230023C7F8943007F12003184609F095
:104CDC001FF80346002B01D0FFF76AFBA54BD3F856
:104CEC00E830A44A43F40023C2F8E830A14BD3F8CF
:104CFC00E83003F40023FB61FB699E4BD3F8E030F2
:104D0C009C4A43F00103C2F8E0309A4BD3F8E030F0
:104D1C0003F00103BB61BB690323C7F8DC3002233A
:104D2C00C7F8E0300023C7F8E4300023C7F8E830B8
:104D3C000823C7F8EC3007F1DC0319468E4803F062
:104D4C00F1FD8E4B8E4A1A608C4B40225A608B4B75
:104D5C0040229A60894B0022DA60884B4FF48062C3
:104D6C001A61864B00225A61844B00229A61834B54
:104D7C000022DA61814B00221A62804B00225A62B7
:104D8C007E4800F0A9FD0346002B01D0FFF710FB75
:104D9C007B687A4ADA67794A7B689363794B7A4AFB
:104DAC001A60784B3F225A60764B00229A60754B02
:104DBC000022DA60734B4FF480621A61714B00224F
:104DCC005A61704B00229A616E4B4FF48072DA611B
:104DDC006C4B00221A626B4B00225A62694800F03D
:104DEC007BFD0346002B01D0FFF7E2FA7B68654A96
:104DFC00C3F88020634A7B6893630022052134202A
:104E0C0000F0BDFC342000F0D4FC7CE17B681B6816
:104E1C005E4A934240F0C6804FF002024FF000030E
:104E2C00C7E908230023C7F8943007F1200318467C
:104E3C0008F06EFF0346002B01D0FFF7B9FA4D4B7B
:104E4C00D3F8E8304B4A43F48013C2F8E830494BAE
:104E5C00D3F8E83003F480137B617B69454BD3F8BE
:104E6C00E030444A43F00203C2F8E030414BD3F83F
:104E7C00E03003F002033B613B694FF44053C7F849
:104E8C00DC300223C7F8E0300023C7F8E4300023FD
:104E9C00C7F8E8300E23C7F8EC3007F1DC031946ED
:104EAC003B4803F03FFD3B4B3B4A1A60394B4222D7
:104EBC005A60384B40229A60364B0022DA60354BF0
:104ECC004FF480621A61334B00225A61314B00223D
:104EDC009A61304B0022DA612E4B00221A622D4B64
:104EEC0000225A622B4800F0F7FC0346002B01D03D
:104EFC00FFF75EFA7B68274ADA67264A7B6893637A
:104F0C00264B274A1A60254B41225A60234B00221C
:104F1C009A60224B0022DA60204B4FF480621A61B7
:104F2C001E4B00225A611D4B00229A611B4B4FF401
:104F3C008072DA61194B00221A62184B00225A62F5
:104F4C00164800F0C9FC0346002B01D0FFF730FADD
:104F5C007B68124AC3F88020104A7B689363002256
:104F6C000521352000F00BFC352000F022FCCAE0B6
:104F7C00004C004000440258000002588C0A0024E7
:104F8C0070000240040B0024A000024000500040BE
:104F9C00000402587C0B002458000240F40B00243F
:104FAC00B80002407B681B68594A934240F0AB80C2
:104FBC004FF001024FF00003C7E908230023C7F8A4
:104FCC00983007F12003184608F0A2FE0346002B88
:104FDC0001D0FFF7EDF94F4BD3F8F0304D4A43F0C9
:104FEC001003C2F8F0304B4BD3F8F03003F0100341
:104FFC00FB60FB68474BD3F8E030464A43F00203B2
:10500C00C2F8E030434BD3F8E03003F00203BB604E
:10501C00BB684FF44043C7F8DC300223C7F8E030DC
:10502C000023C7F8E4300023C7F8E8300423C7F89E
:10503C00EC3007F1DC031946374803F073FC374BAF
:10504C00374A1A60354B2A225A60344B40229A60F8
:10505C00324B0022DA60314B4FF480621A612F4BD5
:10506C0000225A612D4B00229A612C4B0022DA61EE
:10507C002A4B00221A62294B00225A62274800F060
:10508C002BFC0346002B01D0FFF792F97B68234AD7
:10509C00DA67224A7B689363224B234A1A60214BBE
:1050AC0029225A601F4B00229A601E4B0022DA60A4
:1050BC001C4B4FF480621A611A4B00225A61194B37
:1050CC0000229A61174B4FF48072DA61154B002263
:1050DC001A62144B00225A62124800F0FDFB034680
:1050EC00002B01D0FFF764F97B680E4AC3F88020CF
:1050FC000C4A7B68936300220521252000F03FFBBE
:10510C00252000F056FB00BFF037BD4680BD00BF28
:10511C000010014000440258000402586C0C00249A
:10512C0040000240E40C00248800024080B400AF30
:10513C0000BFFDE780B400AF00BFFDE780B400AF57
:10514C0000BFFDE780B400AF00BFFDE780B400AF47
:10515C0000BFFDE780B400AF00BFBD465DF8047B27
:10516C00704780B400AF00BFBD465DF8047B70474C
:10517C0080B400AF00BFBD465DF8047B704780B5BE
:10518C0000AF00F0DDF900BF80BD80B500AF10208E
:10519C0003F0ABFD00BF80BD80B500AF024801F04D
:1051AC00C1FE00BF80BD00BFE007002480B500AF8A
:1051BC00024801F0B7FE00BF80BD00BF58080024B4
:1051CC0080B500AF024801F0ADFE00BF80BD00BF4E
:1051DC006C0C002480B500AF024801F0A3FE00BFA8
:1051EC0080BD00BF7C0B002480B500AF024801F0ED
:1051FC0099FE00BF80BD00BF8C0A002480B500AFB3
:10520C00024801F08FFE00BF80BD00BFE40C0024FB
:10521C0080B500AF024801F085FE00BF80BD00BF25
:10522C00040B002480B500AF202003F05EFD40206D
:10523C0003F05BFD802003F058FD00BF80BD000033
:10524C0080B500AF024804F06FF900BF80BD00BF0D
:10525C008C07002480B500AF024804F07FF900BF32
:10526C0080BD00BF8C07002480B500AF02480AF057
:10527C00C7FC00BF80BD00BFF809002480B500AF9B
:10528C00024801F04FFE00BF80BD00BFF40B0024AC
:10529C0080B500AF02480AF0B3FC00BF80BD00BF70
:1052AC00D008002480B500AF02480AF0A9FC00BF6A
:1052BC0080BD00BF6409002480B500AF024806F031
:1052CC00DDFB00BF80BD00BF7022002480B400AFA6
:1052DC003E4BD3F888303D4A43F47003C2F8883013
:1052EC003B4B1B6803F00F03062B07D8384B1B688E
:1052FC0023F00F03364A43F007031360354B1B684A
:10530C00344A43F001031360324B00221A61314BD3
:10531C001A683049304B13400B602D4B1B6803F05F
:10532C000803002B07D02A4B1B6823F00F03284AD5
:10533C0043F007031360274B00229A61254B002290
:10534C00DA61244B00221A62224B244A9A62214BC6
:10535C00234ADA621F4B234A1A631E4B00225A63FC
:10536C001C4B204A9A631B4B0022DA63194B1D4AD3
:10537C001A64184B00225A64164B1B68154A23F406
:10538C0080231360134B00221A66124BD3F8D430CF
:10539C0003F48053002B13D10E4BD3F8D4300D4AA9
:1053AC0043F48053C2F8D4300F4B43F2D2021A604C
:1053BC00084BD3F8D430074A23F48053C2F8D430C6
:1053CC0000BFBD465DF8047B704700BF00ED00E0F8
:1053DC0000200052004402587FEDF6EA000202025F
:1053EC000000FF018002010100400052044BDA680A
:1053FC0022F00202DA605A689204FCD5704700BFB2
:10540C0000480258DFF838D0FFF7F0FFFFF75EFFD7
:10541C000C480D490D4A002302E0D458C450043303
:10542C00C4188C42F9D30A4A0A4C002301E01360D9
:10543C000432A242FBD310F0C9FDFEF725FBFEE7B8
:10544C000000052400000024E80200240861010883
:10545C00E802002474290024FEE7000080B582B025
:10546C0000AF032000F080F908F07CFA0246154BDF
:10547C009B691B0A03F00F031349CB5C03F01F035A
:10548C0022FA03F37B600F4B9B6903F00F030E4A68
:10549C00D35C03F01F037A6822FA03F30B4A136000
:1054AC000B4A7B6813600F2000F014F80346002BA6
:1054BC0001D0012302E0FFF7EDFA0023184608376C
:1054CC00BD4680BD0044025870600108E80100240C
:1054DC00E401002480B582B000AF7860154B1B78D6
:1054EC00002B01D1012321E0134B1A68114B1B78BF
:1054FC0019464FF47A73B3FBF1F3B2FBF3F318468E
:10550C0000F065F90346002B01D001230EE07B6807
:10551C000F2B0AD8002279684FF0FF3000F02FF9DA
:10552C00064A7B681360002300E001231846083705
:10553C00BD4680BDF0010024E4010024EC010024F0
:10554C0080B400AF064B1B781A46064B1B681344FD
:10555C00044A136000BFBD465DF8047B704700BF72
:10556C00F0010024700D002480B400AF034B1B68C5
:10557C001846BD465DF8047B704700BF700D0024D3
:10558C0080B584B000AF7860FFF7EEFFB8607B6841
:10559C00FB60FB68B3F1FF3F05D00A4B1B781A4642
:1055AC00FB681344FB6000BFFFF7DEFF0246BB68DD
:1055BC00D31AFA689A42F7D800BF00BF1037BD461D
:1055CC0080BD00BFF001002480B485B000AF7860CE
:1055DC007B6803F00703FB600B4BDB68BB60BA68AE
:1055EC004FF6FF031340BB60FB681A02BB681A43FB
:1055FC00064B1343BB60044ABB68D36000BF14372F
:10560C00BD465DF8047B704700ED00E00000FA0534
:10561C0080B400AF044BDB681B0A03F00703184689
:10562C00BD465DF8047B704700ED00E080B483B0AC
:10563C0000AF0346FB80B7F90630002B0BDBFB8871
:10564C0003F01F020749B7F906305B09012000FA85
:10565C0002F241F8232000BF0C37BD465DF8047BF5
:10566C00704700BF00E100E080B483B000AF034698
:10567C003960FB80B7F90630002B0ADB3B68DAB2E5
:10568C000C49B7F906301201D2B20B4483F800234F
:10569C000AE03B68DAB20849FB8803F00F03043BCD
:1056AC001201D2B20B441A7600BF0C37BD465DF81E
:1056BC00047B704700E100E000ED00E080B489B0AD
:1056CC0000AFF860B9607A60FB6803F00703FB6118
:1056DC00FB69C3F10703042B28BF0423BB61FB69DF
:1056EC000433062B02D9FB69033B00E000237B61EA
:1056FC004FF0FF32BB6902FA03F3DA43BB681A407E
:10570C007B699A404FF0FF317B6901FA03F3D9436F
:10571C007B680B40134318462437BD465DF8047B69
:10572C007047000080B582B000AF78607B68013BA9
:10573C00B3F1807F01D301230FE00A4A7B68013B60
:10574C0053600F214FF0FF30FFF78EFF054B002207
:10575C009A60044B07221A60002318460837BD468E
:10576C0080BD00BF10E000E080B582B000AF786073
:10577C007868FFF729FF00BF0837BD4680BD80B5AC
:10578C0086B000AF0346B9607A60FB81FFF740FF3B
:10579C0078617A68B9687869FFF790FF0246B7F9C3
:1057AC000E3011461846FFF75FFF00BF1837BD4695
:1057BC0080BD80B582B000AF0346FB80B7F90630E0
:1057CC001846FFF733FF00BF0837BD4680BD80B5D4
:1057DC0082B000AF78607868FFF7A4FF03461846E4
:1057EC000837BD4680BD000080B400AFBFF35F8FAB
:1057FC0000BF074B5B6A064A23F480335362054BA8
:10580C0000225A6000BFBD465DF8047B704700BFA4
:10581C0000ED00E090ED00E080B483B000AF786064
:10582C000B4A7B6843F0010353600A4B5B6A094ADD
:10583C0043F480335362BFF34F8F00BFBFF36F8FBE
:10584C0000BF00BF0C37BD465DF8047B704700BF3E
:10585C0090ED00E000ED00E080B483B000AF786024
:10586C007B685A781B4B9A601A4B1B69194A23F0B8
:10587C0001031361174A7B685B68D3607B681B7BF1
:10588C001A077B68DB7A1B061A437B689B7ADB045E
:10589C001A437B685B7B9B041A437B689B7B5B0492
:1058AC001A437B68DB7B1B041A437B685B7A1B0205
:1058BC001A437B681B7A5B0013437A681278114693
:1058CC00044A0B43136100BF0C37BD465DF8047BE3
:1058DC00704700BF90ED00E080B586B000AF7860F7
:1058EC00FFF742FE38617B68002B01D1012312E3E4
:1058FC007B681B68664A93424AD07B681B68654A82
:10590C00934245D07B681B68634A934240D07B68C6
:10591C001B68624A93423BD07B681B68604A934287
:10592C0036D07B681B685F4A934231D07B681B681A
:10593C005D4A93422CD07B681B685C4A934227D00B
:10594C007B681B685A4A934222D07B681B68594A71
:10595C0093421DD07B681B68574A934218D07B68D2
:10596C001B68564A934213D07B681B68544A934277
:10597C000ED07B681B68534A934209D07B681B6826
:10598C00514A934204D07B681B68504A934201D120
:10599C00012300E00023002B00F03C817B680222F5
:1059AC0083F835207B68002283F834207B681B68E1
:1059BC00374A93424AD07B681B68364A934245D09B
:1059CC007B681B68344A934240D07B681B68334A1F
:1059DC0093423BD07B681B68314A934236D07B683C
:1059EC001B68304A934231D07B681B682E4A934225
:1059FC002CD07B681B682D4A934227D07B681B6890
:105A0C002B4A934222D07B681B682A4A93421DD0B2
:105A1C007B681B68284A934218D07B681B68274A0E
:105A2C00934213D07B681B68254A93420ED07B6847
:105A3C001B68244A934209D07B681B68224A934214
:105A4C0004D07B681B68214A934208D17B681B6891
:105A5C001A687B681B6822F001021A6007E07B68F9
:105A6C001B681A687B681B6822F001021A602FE021
:105A7C00FFF77AFD02463B69D31A052B28D97B68C0
:105A8C0020225A657B68032283F83520012342E2E9
:105A9C001000024028000240400002405800024022
:105AAC007000024088000240A0000240B800024092
:105ABC0010040240280402404004024058040240F2
:105ACC007004024088040240A0040240B804024062
